:020000040800F2
:10800000F01900200981000839A50008019700082F
:108010005D9E0008218C000843B3000800000000AA
:10802000000000000000000000000000DBAC0008C1
:10803000998C000800000000D5A50008A1AD00083B
:108040002381000823810008238100082381000880
:108050002381000823810008238100082381000870
:108060002381000823810008238100082381000860
:108070002381000823810008238100082381000850
:108080002381000823810008238100082381000840
:108090002381000823810008238100082381000830
:1080A0002381000823810008238100082381000820
:1080B0002381000823810008238100080597000818
:1080C0002381000823810008238100082381000800
:1080D000238100080DB0000899B0000819B100080C
:1080E00023810008238100082381000823810008E0
:1080F00023810008DFF80CD000F0CEFB00480047D9
:1081000031BE0008F01900200648804706480047A5
:10811000FEE7FEE7FEE7FEE7FEE7FEE7FEE7FEE737
:10812000FEE7FEE76DAE0008F580000840EA0103B7
:108130009B0703D009E008C9121F08C0042AFAD21D
:1081400003E011F8013B00F8013B521EF9D27047E1
:10815000D2B201E000F8012B491EFBD27047002289
:10816000F6E710B513460A4604461946FFF7F0FF36
:10817000204610BD30B505460020034600E05B1CDC
:10818000934205D2EC5CC85C201A01D1002CF6D1D8
:1081900030BDF0B480EA0102D40F4200B2EB410FCF
:1081A00002D20246084611464A0042D0C30DDDB253
:1081B000C1F3C752AD1A202D35DAC1F3160141F4CF
:1081C000000204B15242C5F1200602FA06F12A412A
:1081D0001044B3EBD05F23D0C4B1012DA0EBC3504A
:1081E00009DCF0BC4FF0004202EAC352DBB200F5FA
:1081F000000000F0C5BA400000F1807000EBC350F1
:10820000A0F1807040EAD170490009E0490841EAD4
:10821000C071A0EBC35000F50000400800EBC35054
:10822000F0BC00F0A4BA6142012202EB4101001B44
:10823000F6E7F0BC704781F00041AAE780F000400B
:10824000A7E780EA010210B502F00043400022D007
:108250004A001FD0010E01EB1261C0F35600C2F3B9
:10826000560240F4000042F40002A0FB0220000489
:108270007F39140400D0401C50EA124001D4400061
:10828000491EC2B20C0604EBD010401C4008802AE4
:1082900002D003E0002010BD20F00100002900DA28
:1082A0000020184310BD30B480EA010202F00045FE
:1082B00030F0004221F0004013D090B1C30DD40D36
:1082C000C2F31601C0F31600E41A41F4000140F4B1
:1082D00000027D34914201D3641C00E04900002C6F
:1082E00002DA30BC002070474FF4000000239142B6
:1082F00001D3891A034340084FEA4101F7D151B134
:10830000914202D14FF0004105E002D24FF001014D
:1083100001E06FF0010103EBC450284430BC00F0D1
:1083200026BA2DE9FE4F804681EA0300C00F0C46B5
:10833000009021F0004123F00045B8EB0200A94174
:1083400005D24046214690461C460B46024623F085
:108350000040104347D0270DC7F30A00C3F30A516A
:108360000290401A019040286BDAC3F3130040F4E6
:10837000801B0098924620B10023D2EB030A63EBE6
:108380000B0B01985946C0F14002504600F0CEF95F
:1083900006460D4650465946019A00F0D6F910EBB4
:1083A00008006141002487EA115284EAE7731A4306
:1083B00040D0009A62B3019A012A4FEA075215DCB5
:1083C000001B61EB02014FF0004202EA0752CDE9C7
:1083D0000042001C41F5801132462B4600F00DFA98
:1083E00003B0BDE8F08F40462146F9E7001B61EB82
:1083F0000201001C41F5801300185B412018A2F512
:10840000001747EB030140EAD570B6196D4111E042
:108410006D084FEA360645EAC0754FEA0752001B61
:1084200061EB0201001C41F5801149084FEA300060
:108430000019514132462B4603B0BDE8F04F00F021
:10844000CDB90098012240000023D0EB020263EB7B
:10845000E073009821464FEAE074B8EB000061EB4E
:108460000401E9E783F000435BE781F0004158E74E
:108470002DE9FE4F81EA030404F0004421F000419D
:1084800000944FF0000B23F0004350EA01045ED04B
:1084900052EA03045BD0C3F30A54C1F30A552C44D7
:1084A000A4F2F3340194A0FB0254C1F3130141F48C
:1084B0008011C3F3130343F4801301FB024400FB58
:1084C000034E840A970A44EA815447EA8357A4FB7F
:1084D000076802958D0A05FB07854FEA932C04FB7C
:1084E0000C542705029D4FEA065847EA1637B5EBAC
:1084F00008056EEB070C870E920E47EA811742EAD9
:108500008312A7FB0201B6EB0B0164EB00042B0DF9
:1085100043EA0C335E1844EB1C50DA465146E7FB45
:108520000201C5F313044FEA0B3343EA14534FEA35
:108530000432019C43EA0603A4F10C040294009C5B
:10854000CDE900B400F059F903B0BDE8F08F002088
:108550000146F9E72DE9F04D81EA030404F0004BF0
:1085600021F0004514464FF0000A23F0004150EA84
:10857000050220D054EA01021DD0C5F30A57024675
:10858000C5F31303C1F31300C1F30A5640F4801579
:1085900043F48013A7EB0608101BD64608F2FD38FB
:1085A00073EB050002D308F1010801E092185B416A
:1085B000B8F1000F03DA00200146BDE8F08D00207D
:1085C0004FF48011064684460EE0171B73EB050737
:1085D00005D3121B63EB050306434CEA010C490863
:1085E0004FEA300092185B4150EA0107EDD152EAA0
:1085F000030012D082EA040083EA0501084305D093
:10860000101BAB4106D20122002306E000224FF0EE
:10861000004302E06FF0010253101AEB06004CEB2E
:10862000085110EB0A0041EB0B01BDE8F04D00F0E2
:10863000D5B870B521F0004303430CD0C1F30A55FF
:108640000024D5EB040564EB0403D617AD1AB3413F
:1086500002DB0020014670BD201841EB025170BDC5
:10866000C10F80EAE0700844CA079623002100F099
:1086700087B896230022114600F082B80EB5C10FCC
:1086800080EAE0700844CA07002140F233438DE8D5
:108690000E000A460B4600F0B0F803B000BD0EB560
:1086A00040F2334102910021CDE900110A460B4608
:1086B00000F0A3F803B000BD00F0004230F000402D
:1086C0000AD0C10D01F56071C0F3160042EA0151F4
:1086D000C20840071143704700200146704701F06F
:1086E000004330B421F0004150EA010206D00A0DE7
:1086F000A2F56072C1F31301002A02DC30BC002035
:108700007047440F44EAC104C100E01830BC00EBDC
:10871000C25000F02CB80000002801DBC0F100407E
:10872000002901DBC1F1004188427047202A04DBA7
:10873000203A00FA02F1002070479140C2F1200374
:1087400020FA03F3194390407047202A06DBCB1729
:10875000203A41FA02F043EAE07306E041FA02F3FC
:10876000D040C2F1200291400843194670470029C9
:10877000A8BF7047401C490008BF20F001007047A7
:1087800010B4B0FA80FC00FA0CF050EA010404BF07
:1087900010BC704749B1CCF1200421FA04F411FA5D
:1087A0000CF118BF012121430843A3EB0C01CB1DA1
:1087B0004FEA00614FEA102042BF002010BC704712
:1087C00000EBC35010440029A4BF10BC7047401CEC
:1087D000490008BF20F0010010BC704710B5141EFE
:1087E00073F1000408DA401C41F1000192185B416A
:1087F0001A4301D120F0010010BD2DE9F04D924641
:108800009B4611B1B1FA81F202E0B0FA80F2203257
:108810009046FFF78BFF04460F4640EA0A0041EA04
:108820000B0153465A46084313D0114653EA010040
:1088300019D0C8F14002504600F040F805460E46F7
:10884000504659464246FFF771FF084305D00120C4
:1088500004E020463946BDE8F08D0020054346EA95
:10886000E0762C4337430A986305E40AA0EB08003E
:108870000022FD0A44EA47540A3002D5002001468E
:10888000E9E7010510196941DDE908450019694169
:10889000BDE8F04DA2E70000064C074D06E0E06899
:1088A00040F0010394E8070098471034AC42F6D337
:1088B000FFF724FC00C1000820C10008202A04DBC7
:1088C000203A21FA02F00021704721FA02F3D04049
:1088D000C2F12002914008431946704770B5C1F3B8
:1088E0000A5201F000450024C1F3130140F2FF33A6
:1088F00041F480119A4201DA002070BD40F2334306
:108900009A42A2F2334203DC5242FFF7D7FF00E063
:1089100090402C43F1D0404270BD10B502F0E4F815
:10892000052000F0BBF952212F2000F05BF9052053
:1089300000F0B4F90321282000F054F901212A2085
:1089400000F050F9C1212C2000F04CF900212D201D
:1089500000F048F9BDE810404FF4967000F09EB961
:1089600070B50D4E04464FF400752946304600F0B0
:108970004DFB00BF00BF012000EB4400C0B202F07D
:1089800037F902F031F9044600BF00BF29463046EE
:1089900000F03EFB204670BD000002402DE9F04F84
:1089A000ADF51B7D8346C8216846FFF7D8FBC8217B
:1089B00032A8FFF7D4FBC82164A8FFF7D0FB002042
:1089C00098909790969032240620FFF7C9FF0502F1
:1089D0000720FFF7C5FF054340F23C707C4E7D4FFA
:1089E000DFF8F4818542A5F23C750BD3A8B2FFF7FE
:1089F00056FE32463B46FFF7ADFD00224346FFF7E9
:108A000034FD0BE0684280B2FFF749FE32463B4638
:108A1000FFF7A0FD00224346FFF783FCFFF75FFE50
:108A20000025E9460DF1C80A9990DFF8B0814FF6AC
:108A3000FF764FF480573946404600F0E0FA08B917
:108A4000761EF8D20820FFF78BFF06060920FFF7F5
:108A500087FF46EA00460A20FFF782FF46EA002029
:108A60004FEA20380B20FFF77BFF06060C20FFF7AC
:108A700077FF46EA00460D20FFF772FF46EA002026
:108A800006130E20FFF76CFF07060F20FFF768FFA5
:108A900047EA00471020FFF763FF47EA002007136B
:108AA0004046FFF7EBFD6FF011084246FFF7C1FDAE
:108AB000FFF715FE49F825003046FFF7DFFD424677
:108AC000FFF7B7FDFFF70BFE4AF825003846FFF722
:108AD000D5FD4246FFF7ADFDFFF701FE0DF5C87865
:108AE00048F825006D1CA5429FD3002635E0751C73
:108AF00030E04F4659F8251059F82600FFF70CFED4
:108B000007D257F8260057F8251047F8261047F8DF
:108B1000250057465AF825105AF82600FFF7FCFDA5
:108B200007D257F8260057F8251047F8261047F8BF
:108B30002500474658F8251058F82600FFF7ECFDA9
:108B400007D257F8260057F8251047F8261047F89F
:108B500025006D1CA542CCD3761CA642C7D36FF06E
:108B6000030000EB54050620464600EB540412E0D7
:108B700059F825109898FFF70CFB98905AF8251093
:108B80009798FFF706FB979056F825109698FFF7F1
:108B900000FB6D1C9690AC42EAD8114C9898214687
:108BA000FFF781FBCBF8000021469798FFF77BFB8E
:108BB000CBF8040021469698FFF775FBCBF8080028
:108BC0009998CBF80C000DF51B7DBDE8F08F0000E7
:108BD0009A99999999192240000039400000024061
:108BE000000020412DE9F0410C4D0E4607464FF4A0
:108BF00000742146284600F009FA00BF00BF78063D
:108C0000000E01F0F5FF304601F0F2FF00BF00BF9B
:108C100021462846BDE8F04100F0FAB900000240C4
:108C2000FEE770B504464FF6FF7000234AF20105D7
:108C30000FE014F8012B50400022C60702D085EA4D
:108C4000500000E04008521CD2B2082AF5D35B1C49
:108C5000DBB28B42EDD370BD0821014800F0CBB9E7
:108C6000000002400248016841F0010101607047C4
:108C7000043C024005480068C00705D00348044989
:108C8000083001600349016070470000043C024065
:108C9000EFCDAB89050403027047000001B503481E
:108CA0000099416041680029FCD108BD0000002006
:108CB00030B599B00C46054660216846FFF74FFA7B
:108CC000602C00D9602422466946284600F036F818
:108CD00019B030BD70B50D460A4916464418FFF765
:108CE000C9FF00F0FFF80128FBD003E014F8010BE6
:108CF00005F8010B761EB6B2F8D2BDE87040FFF75A
:108D0000B1BF00008002080870B50D460A4916463A
:108D10004418FFF7AFFF00F0E5F80128FBD003E0AF
:108D200014F8010B05F8010B761EB6B2F8D2BDE8B7
:108D30007040FFF797BF00000000080870B50E46AE
:108D40000C4915464418FFF795FF00F0CBF80428AE
:108D5000FBD107E016F8010B04F8010B00F0C2F894
:108D60000128FBD06D1EADB2F4D2BDE87040FFF714
:108D700079BF0000800208082DE9F84F80F000401C
:108D80000A9C00909A4616460846FFF795FC504FFD
:108D9000DFF840813A464346FFF76AFBDFF8389137
:108DA00000224B46FFF7D6FBFFF799FC05463046FD
:108DB000FFF782FC3A464346FFF75AFB00224B4638
:108DC000FFF7C8FBFFF78BFC06465046FFF774FC25
:108DD0003A464346FFF74CFB00224B46FFF7BAFBEF
:108DE000FFF77DFC81462846FFF766FC0F460546E7
:108DF00003F050F8FFF773FC80462846394602F02E
:108E0000C9FFFFF76CFC83463046FFF755FC0F4661
:108E1000054603F03FF8FFF762FC06462846394650
:108E200002F0B8FFFFF75BFC07464846FFF744FC3B
:108E30008946054603F02EF8FFF751FC8246284686
:108E4000494602F0A7FFFFF74AFC81464146FFF77B
:108E5000F8F93946FFF7F5F9054631465046FFF770
:108E6000F0F92946FFF795F9054641465046FFF7C8
:108E7000E8F9804631464846FFF7E3F906464046A2
:108E80003946FFF7DEF93146FFF7D5F90646394690
:108E90005846FFF7D6F9114F804639462846FFF766
:108EA000D0F90099FFF7CDF9206039463046FFF739
:108EB000C8F90099FFF7C5F9606009494046FFF716
:108EC000C0F90099FFF7BDF9A060BDE8F88F000078
:108ED0004AD8124DFB210940008066400000204125
:108EE000000020C1084904200A68D20701D00120EF
:108EF00070470A68D20501D502207047096811F44D
:108F0000F05FFAD003207047183C02407CB5012185
:108F1000032001F013FD01248DF8044000261820E1
:108F20008DF8066000908DF8074003258DF80550F8
:108F300069460B4800F018F88DF804408DF806607B
:108F40008DF807402220074C00908DF805506946A7
:108F5000204600F009F80221204600F059F87CBDB7
:108F60000000024000040240F0B5002201274FF04B
:108F7000030E0B6807FA02F52B40AB4227D10668B7
:108F8000530091F804C00EFA03F4A6430CFA03FC54
:108F90004CEA060CC0F800C00E79012E01D0022E5A
:108FA0000FD1866891F805C0A6430CFA03FC4CEA81
:108FB000060CC0F808C08688AE438D7995403543CD
:108FC0008580C568A543CC799C402C43C460521C65
:108FD000102ACED3F0BD4B07DB0E9A40C90810B55E
:108FE00000EB8100016A0F249C40A1430162016AE9
:108FF0001143016210BD828A4A4082827047024654
:109000000020128A0A4200D0012070474183704735
:10901000018370471FB500200090019002900390DB
:10902000102269464FF4C070FFF76EFE074900201A
:109030006A4601EB400432F810305BBA2385401CCD
:10904000C0B20828F5D304B0012010BD1C070020D1
:1090500008B5012269460A2000F004F89DF80000D6
:1090600008BD00002DE9F74F5A4E4FF4162A14465A
:109070000D46C6F800A04FF40038574F03E03068A3
:10908000411E31606FD34146384600F051FC002844
:10909000F5D10121384600F0FDFB0121384600F0F2
:1090A00033FC4FF47048C6F80080DFF83091BB46BF
:1090B00003E03068411E316055D34F46494658465B
:1090C00000F036FC0028F4D000223C21D946584656
:1090D00000F0BDFCC6F80080DFF804B103E03068A2
:1090E000411E316074D35946484600F0DDFB00282C
:1090F000F5D0CB464846009900F0B1FCC146C6F811
:109100000080D84603E03068411E316060D33349A7
:1091100040467F3100F00CFC30B930494046C91C54
:1091200000F006FC0028EED00121C346404600F0C6
:10913000EBFBC846C6F80090B9465F4603E03068CE
:10914000411E316044D34946384600F0F1FB002807
:10915000F5D001223C21384600F079FCC6F80080A9
:10916000DFF8808004E033E03068411E31602FD3A7
:109170004146384600F098FB0028F5D0DFF86480BF
:10918000D14608F13E0804B3012C03D10021384632
:1091900000F080FBC6F8009003E03068411E3160AB
:1091A00016D34146384600F07FFB0028F5D03846FC
:1091B00000F04AFC2870012C03D10121384600F050
:1091C000ADFB641EE4B26D1CDDE70120BDE8FE8F3F
:1091D0000020FBE7280000200054004001000010A0
:1091E00082000700020003002DE9F0473D4E814652
:1091F0004FF4704014460D4630603B4F0121384615
:1092000000F048FB4FF4003803E03068411E316045
:1092100065D34146384600F08BFB0028F5D101218B
:10922000384600F071FBDFF8C48003E03068411E6F
:10923000316054D34146384600F07AFB0028F5D01F
:1092400000223C21384600F002FCDFF8A48003E055
:109250003068411E316042D34146384600F024FB5D
:109260000028F5D04946384600F0F9FBDFF87C804D
:10927000DFF8789008F17F0809F1030903E030680E
:10928000411E31602BD34146384600F051FB28B9CE
:109290004946384600F04CFB0028F0D0DFF85080FB
:1092A00008F10208C4B12978384600F0D8FB03E081
:1092B0003068401E306012D34146384600F0F4FA60
:1092C0000028F5D0012C03D10121384600F026FBFF
:1092D000641EE4B26D1CE5E70120BDE8F0870020C4
:1092E000FBE70000280000200054004001000010AF
:1092F0008200070000F062BA2DE9F14FADF51E7D46
:1093000000241E25969497949A949994C8216846AF
:109310009894FEF724FFC82132A8FEF720FFC82149
:1093200064A8FEF71CFF874EB6F91200FFF7A6F9F6
:1093300007468846B6F91200FFF7A0F93A464346B9
:10934000FFF708F9FFF7CBF99C90B6F91400FFF787
:1093500095F907468846B6F91200FFF78FF93A46A5
:109360004346FFF7F7F8FFF7BAF99B90B6F91600F6
:10937000FFF784F907468846B6F91200FFF77EF931
:1093800043463A46FFF7E6F8FFF7A9F9074600F02B
:10939000DFF887F0004BE84600F084FC96A800F068
:1093A000F1F8FFF759FCBDF95A02FFF759F9654E7C
:1093B000F169FEF740FF9B99FEF743FF0746BDF9B1
:1093C0005802FFF74DF9B169FEF735FF9C99FEF79A
:1093D00038FF8146BDF95C02FFF742F9316AFEF7BA
:1093E0002AFF01465846FEF72CFF06463846FFF78F
:1093F00063F9DFF854A100225346FFF739F86FF004
:109400000A073A46FFF715F9FFF769F948F824000B
:109410004846FFF751F900225346FFF729F83A462C
:10942000FFF707F9FFF75BF90DF1C80949F82400C8
:109430003046FFF741F900225346FFF719F83A4644
:10944000FFF7F7F8FFF74BF90DF5C87A4AF8240053
:10945000641CE4B2AC429FD300263AE006F1010B53
:109460000BF0FF0431E0474658F8241058F8260066
:10947000FFF752F907D257F8260057F8241047F89B
:10948000261047F824004F4659F8241059F82600B2
:10949000FFF742F907D257F8260057F8241047F88B
:1094A000261047F8240057465AF824105AF8260088
:1094B000FFF732F907D257F8260057F8241047F87B
:1094C000261047F82400641CE4B2AC42CBD30BF066
:1094D000FF06AE42C2D3FE2000EB5500C4B203200B
:1094E0004E46574600EB550513E058F824109A985D
:1094F000FEF74FFE9A9056F824109998FEF749FE11
:10950000999057F824109898FEF743FE641CE4B233
:109510009890A542E9D80D4C9A982146FEF7C3FED3
:109520009E9A214610609998FEF7BDFE9E9948606C
:1095300021469898FEF7B7FE9E9988600DF51F7D2D
:10954000BDE8F08FB8060020004060400000A04059
:1095500008B574208DF80000012269460020FFF74D
:1095600043FE20208DF80000012269461046FFF7D7
:109570003BFE00208DF80000012269460220FFF723
:1095800033FE08BDF8B50546214C224E00E0DCB3A1
:1095900008213046FFF733FD08B1641EF7D20122DF
:1095A00069460320FFF75EFD9DF8000001220402DA
:1095B00069460420FFF756FD9DF800000122044390
:1095C00069460720FFF74EFD9DF8000001220602C4
:1095D00069460820FFF746FD9DF80000012206437A
:1095E00069460520FFF73EFD9DF8000001220702B5
:1095F00069460620FFF736FD9DF800002C800743E2
:109600006E80AF800120F8BDFFE70020FBE700007F
:10961000FFFF3F00000402402DE9F047354E0025D2
:1096200088B070782C46082800D004250422311D0B
:109630003148FEF79FFD08B1042500E045B1B07840
:1096400030B1284600F038FD002008B0BDE8F087B2
:1096500000252F46DFF8A4804FF002094FF4967AD8
:10966000FFF776FFFFF7F8FA05A8FFF78BFF322028
:10967000FFF714FBFFF7F0FA641CB8F80000A4B27F
:109680008DF80000F0788DF801008DF80470200A44
:109690008DF802708DF805008DF80390BDF8140068
:1096A0008DF80800010A8DF80640BDF816008DF807
:1096B0000710010A8DF809108DF80A00BDF818008E
:1096C0008DF80C00010A8DF80B100D216846FFF78C
:1096D000A8FA8DF80D00000A8DF80E00B07818B1C8
:1096E0000F21684601F0ECFB6D1CADB25545B7D3B8
:1096F0000120AAE7EC07002038BF0008B8060020C8
:10970000FEE7000070B5264D264C2946204600F0A5
:1097100024F918B12946204600F0D2F8224D2046FF
:10972000294600F01AF918B12946204600F0C8F879
:109730001E4D2046294600F010F918B12946204652
:1097400000F0BEF81A4D2046294600F006F918B17F
:109750002946204600F0B4F8164D2046294600F070
:10976000FCF818B12946204600F0AAF8124D204610
:10977000294600F0F2F818B12946204600F0A0F87A
:109780004FF001252946204600F0E7F8002805D0D3
:1097900029462046BDE8704000F092B870BD000038
:1097A0000080000100540040004000010002000160
:1097B00000100001000800010004000170B5012143
:1097C0004C0586B0204601F0C5F80121022001F0C9
:1097D000B5F80121084601F0D5F80121204601F035
:1097E000C5F80021204601F0C1F8274E04220821C7
:1097F0003046FFF7F0FB042209213046FFF7EBFB70
:109800004FF44070012500908DF8055002208DF82E
:1098100004008DF8065000248DF807406946304654
:10982000FFF7A2FB8DF8055008208DF8044000904A
:109830008DF806408DF8074069463046FFF794FBE7
:10984000124D284600F04AF8ADF80C404BF6FF7078
:10985000ADF80E00ADF810402815ADF8120000016B
:10986000ADF814000A48029002A9284600F090F8CA
:1098700001221102284600F082F80121284600F05A
:1098800022F806B070BD0000000402400054004001
:10989000A08601000029018802D041F4806101E026
:1098A00021F4806101807047034600209A8A1B8B57
:1098B00042EA034222F07F42914300D101207047E7
:1098C000C943818270470029018802D041F001011B
:1098D00001E021F00101018070470000094910B545
:1098E00088424FF0010101D14C0501E04FF48004A2
:1098F000204601F03BF82046BDE81040002101F071
:1099000035B80000005400400029018802D041F41D
:10991000807101E021F48071018070470029018885
:1099200002D041F4007101E021F400710180704720
:109930000CB50246002000920A0F21F07F410192EF
:1099400002D0009A143202E0009A090C18320092F8
:1099500012680A4200D001200CBD10B50346002059
:109960009A884FF4E06404EA11449B8A224021F073
:109970007F410B4202D0002A00D0012010BD002AF6
:10998000828801D00A4300E08A4382807047000049
:109990007FB5044680880D4620F03F06684601F0FA
:1099A00009F827490298B0FBF1F189B20E43A6806D
:1099B000228822F001022280224B2A689A421BD878
:1099C0005200B0FBF2F080B2042800D20420491CFF
:1099D0002184A083208840F00100208020884FF659
:1099E000F5310840A9886A89114301432180A8897B
:1099F0002989084320817FBDEB88A3F53F46FF3EC0
:109A00000BD002EBC20303EB0212B0FBF2F080B208
:109A100040F48040020506D007E002EB4202B0FBB2
:109A2000F2F080B2F6E740F001004FF49672514335
:109A30004FF47A72B1FBF2F140F40040C7E7000046
:109A400040420F00A0860100008AC0B2704712B1E8
:109A500041F0010101E001F0FE0101827047018245
:109A6000704710B54FF4C06000F09AFDFFF74EFA52
:109A700000F064F8BDE810404FF4165001F03ABA17
:109A8000F8B5022269460020FFF724F99DF800008E
:109A900005260125274C122828D09DF801003428DE
:109AA00024D080210020FFF703F925806580002065
:109AB000A080C4F80600C4F80A00C4F80E0065824D
:109AC000A582E582A061E0612062A684322221465F
:109AD0001046FFF733F912208DF8000034208DF87E
:109AE0000100022269460020FFF728F932221149BD
:109AF0001046FFF7EFF8208810B12088F72800D92A
:109B00002580608810B16088042800D96580A08C09
:109B100010B1A08C0A2800D9A684074840F24C4115
:109B2000018040F202414180A18CC184FFF772FAAA
:109B3000F8BD0000B80600201C07002070B50E48D4
:109B40004FF47A714FF0FF350068B0FBF1F1491E18
:109B5000B1F1807F0AD24FF0E02461610F212846E5
:109B600000F028FD0020A061072020612846BDE804
:109B70007040002100F01EBD4800002070B5484C28
:109B800020882188000204F1680540EA112025F8A8
:109B9000020B60886188000240EA1120288060681A
:109BA0006168000601F47F4140EA0120616801F428
:109BB0007F0140EA1120616840EA1160C5F80200A7
:109BC00020892189000240EA1120E880D4F80A00A7
:109BD00001F0DAFEA860D4F80E0001F0D5FEE860CE
:109BE000D4F8120001F0D0FE2861D4F8160001F07C
:109BF000CBFE6861D4F81A0001F0C6FEA861D4F863
:109C00001E0001F0C1FEE861D4F8220001F0BCFEA4
:109C10002862E08CE18C000240EA1120A884002038
:109C2000AD1E04EB40010A8D098D120242EA11219A
:109C300005EB40021185401CC0B20828F1D3A06B8F
:109C400001F0A2FEA863E06B01F09EFEE863206CC9
:109C500001F09AFE2864606C01F096FE6864A06CC6
:109C600001F092FEA864E06C01F08EFEE864206DC5
:109C700001F08AFE2865606D01F086FE6865A06DC2
:109C800001F082FEA865E06D01F07EFEE865206EC1
:109C900001F07AFE2866606E01F076FE686670BD9F
:109CA0001C07002070B510213748FFF7AFF9374D7A
:109CB0002878002867D0002405E001F083F92919ED
:109CC0008870641CA4B26878A042F6D86878801EB8
:109CD000C1B2A81CFEF7A5FF014668782A5C6B7824
:109CE0002A48401C1B5C002642EA03228A4208D014
:109CF0006A782946105CFF2841D14878085CFF2823
:109D00003DD123480660A878224909888842284620
:109D10002ED1C1781F4C643409292ED006DC0329CA
:109D20000ED004290FD0062906D110E0102913D037
:109D3000402915D0412917D0012000F0BDF91EE0BF
:109D400000F044F91BE000F08BF8022002E000F084
:109D500031FA0320208112E000F0B0FA0420F9E784
:109D6000FFF75AFC0520F5E700F0C8F90920F1E7F4
:109D7000817821B9C078092801D100F06FFE01F087
:109D800015F96E702E7070BD00000240EC070020C7
:109D90000C000020B806002070B52F4C20882188C8
:109DA000000204F1320540EA112025F8020B608818
:109DB0006188000240EA11202880A088A188000262
:109DC00040EA11206880D4F8060001F0DDFD6860EB
:109DD000D4F80A0001F0D8FDA860D4F80E0001F014
:109DE000D3FDE860608A618AC0F3072040EA012061
:109DF0002882A08AA18AC0F3072040EA0120688255
:109E0000E08AE18AC0F3072040EA0120A882A06925
:109E100001F0BAFDC5F81600E06901F0B5FDC5F81E
:109E20001A00206A01F0B0FDC5F81E00A08CA18CBC
:109E3000000240EA11206884D4F8260001F0A4FD55
:109E40006862D4F82A0001F09FFDA862D4F82E00C1
:109E500001F09AFDE86270BDB8060020FEE7000040
:109E6000F0B5594EADB000207179327941EA022443
:109E7000F179B279A6F59A7741EA0222A118491E32
:109E80004FF6FF73D7F806C089B203EA4205A6F180
:109E9000D003C3F844C0D7F80AC0C3F848C0D7F805
:109EA0000EC0C3F84CC07378082B00D0042002B950
:109EB0000220032C25D0062C23D0082C21D00A2CDC
:109EC0001FD00C2C1DD00E2C1BD0102C19D0122CF6
:109ED00017D01D2C15D01F2C13D0212C11D0232CC2
:109EE0000FD0252C0DD0272C0BD0292C09D02B2CB2
:109EF00007D02D2C05D02F2C03D0312C01D0332CA2
:109F000000D10220022925D0052923D0072921D0FC
:109F100009291FD00B291DD00D291BD00F2919D0BD
:109F2000112917D01C2915D01E2913D0202911D092
:109F300022290FD024290DD026290BD0282909D079
:109F40002A2907D02C2905D02E2903D0302901D069
:109F5000322900D10220332900DD0220332C00DD1C
:109F60000220F179B27941EA0221342901D9032092
:109F700000E020B100F0A0F800202DB0F0BDFFF708
:109F8000FDFD38888DF80000F0788DF801000E484E
:109F90008DF80250683800EB44016C462A46E01CFC
:109FA000FEF7C4F8E81CC1B26846FEF73AFE611934
:109FB000C870000A0871B07820B16D1DA9B268465A
:109FC00000F07EFF0120D8E7EC07002070B5384E86
:109FD000AEB000207179327941EA0224F179B27988
:109FE0004FF6FF7341EA0222A11803EA4205491E17
:109FF000737889B2082B00D0042002B90220042C07
:10A000000FD0062C0DD0082C0BD00D2C09D00F2C06
:10A0100007D0112C05D0142C03D0162C01D0182CED
:10A0200000D1022003290FD005290DD007290BD01C
:10A030000C2909D00E2907D0102905D0132903D0E7
:10A04000152901D0172900D10220182900DD02208E
:10A05000182C01DD022000E020B100F02DF80020D6
:10A060002EB070BDFFF798FE124800888DF80000F2
:10A07000F0788DF801000F488DF80250323000EB77
:10A0800044016C462A46E01CFEF750F8E81CC1B2B9
:10A090006846FEF7C6FD6119C870000A0871B078FD
:10A0A00020B16D1DA9B2684600F00AFF0120D7E774
:10A0B000EC070020B80600201CB5002818D00D4978
:10A0C00009888DF800100C49C97841F080018DF89D
:10A0D00001108DF8020003216846FEF7A2FD8DF8FD
:10A0E0000300000A8DF804000521684600F0E8FE30
:10A0F0001CBD0000B8060020EC0700203EB52B4D2B
:10A1000000246878082800D004240422291D284847
:10A11000FEF730F808B1042400E034B1A87820B18B
:10A120002046FFF7C9FF00203EBD2048D038016D12
:10A13000A0F16404C4F82610416DC4F82A10816DA2
:10A14000C4F82E10816BC4F80610C16BC4F80A1055
:10A15000006CC4F80E000C22A11D3820FEF7EEFDA5
:10A160000C2204F126015820FEF7E8FD20888DF826
:10A170000000E8788DF8010000208DF802008DF8CD
:10A1800004008DF803008DF8050006216846FEF7EF
:10A1900048FD8DF80600000A8DF80700A87818B170
:10A1A0000821684600F08CFE01203EBDEC0700202F
:10A1B00038BF00087FB53F4E00247079317940EAFE
:10A1C0000120F179B27941EA0221ADF80C107278E0
:10A1D000082A00D0042460B101280AD0022808D03F
:10A1E000092806D00A2804D00B2802D0122800D053
:10A1F0000224314D092829D005DC58B101281BD093
:10A2000002280AD11DE00A2825D00B2828D01228C0
:10A2100003D12AE009B1F72901D9042406E02980F5
:10A22000022203A93220FEF789FD3CB32046FFF746
:10A2300043FF002004B070BD6980022203A93420CE
:10A24000F1E7A980022203A93620ECE76982022205
:10A2500003A94420E7E7A982022203A94620E2E7F6
:10A26000E982022203A94820DDE7A984A88C1249CB
:10A270006431C884022203A95620D4E728888DF8C7
:10A280000000F0788DF801000A4806213438806B10
:10A29000CDF802006846FEF7C4FC8DF80600000AFF
:10A2A0008DF80700B07818B10821684600F008FE64
:10A2B0000120BFE7EC070020B80600202DE9FE438F
:10A2C000DFF86C82002098F8052098F8043042EA04
:10A2D000032498F8073098F8062098F8087053EA95
:10A2E000022204EB0201A1F101018DB200D007B9F5
:10A2F0000220042C0FD0062C0DD0082C0BD00D2CD6
:10A3000009D00F2C07D0112C05D0142C03D0162CFB
:10A3100001D0182C00D10220032D0FD0052D0DD017
:10A32000072D0BD00C2D09D00E2D07D0102D05D0E8
:10A33000132D03D0152D01D0172D00D10220182D7B
:10A3400000DD0220182C01DD0220B9E000287DD1BB
:10A350007849322201F13200FDF7E8FE754E3A46A7
:10A36000323606EB440006F20B11FDF7DFFEECB3CC
:10A37000012C06D82DB170887188000240EA1120A6
:10A380007080022C07D8022D05D3B088B188000256
:10A3900040EA1120B080032C07D8042D05D3D6F84D
:10A3A000060001F0F1FAC6F80600052C07D8062DC4
:10A3B00005D3D6F80A0001F0E7FAC6F80A00072C20
:10A3C00007D8082D05D3D6F80E0001F0DDFAC6F83F
:10A3D0000E00092C08D8092D06D3708A718AC0F3A3
:10A3E000072040EA012070820A2C00E039E008D8FA
:10A3F0000A2D06D3B08AB18AC0F3072040EA0120B3
:10A40000B0820B2C08D80B2D06D3F08AF18AC0F34A
:10A41000072040EA0120F0820C2C05D80D2D03D333
:10A42000B06901F0B1FAB0610E2C05D80F2D03D33D
:10A43000F06901F0A9FAF061102C05D8112D03D3B1
:10A44000306A01F0A1FA3062122C00E038E00FD837
:10A45000122D2BD3B08CB18C000240EA1120B084B5
:10A4600008E030883188000240EA1120308081E71E
:10A47000142C07D8132D05D3D6F8260001F084FA42
:10A48000C6F82600162C07D8152D05D3D6F82A00B5
:10A4900001F07AFAC6F82A00182C07D8172D05D330
:10A4A000D6F82E0001F070FAC6F82E003088214F41
:10A4B00010B13088F72808D998F802100320C1B1EC
:10A4C000FFF7FAFD0020BDE8FE831A49322232313F
:10A4D0001848FDF72BFE1749322232311046FEF79D
:10A4E0002DFC122C05D8122D03D3B88C11496431E0
:10A4F000C88438888DF8000098F8030044468DF829
:10A5000001000B4806213438806BCDF80200684604
:10A51000FEF787FB8DF80600000A8DF80700A0788B
:10A5200018B10821684600F0CBFC0120CBE7000001
:10A53000EC070020B80600207047000030B50F235C
:10A54000C27801780125FAB1144A126801F1E021BC
:10A5500002F4E062C2F5E062C2F30722C2F1040431
:10A56000D3404278A24084781C401443220181F8F1
:10A570000024007800F01F018D404009800000F1A8
:10A58000E020C0F8005130BD01F01F0085404809AF
:10A59000800000F1E020C0F8805130BD0CED00E0FB
:10A5A0000249084302490860704700000000FA05AC
:10A5B0000CED00E00907090E002806DA00F00F0094
:10A5C00000F1E02080F8141D704700F1E02080F8D1
:10A5D00000147047704700002DE9F04F00248FB041
:10A5E000A1460794089409940A9406940494059447
:10A5F000A046274625461426019402940394FEF7AC
:10A600002BFBFFF74FFB07A8FEF7C8F94846079951
:10A61000FDF7BFFD814640460899FDF7BAFD80462B
:10A6200038460999FDF7B5FD074628460A99FDF712
:10A63000B0FD641CE4B20546B442E0D33046FEF7F8
:10A6400018F80446214687F00040FDF72CFEB44E72
:10A650003060214689F00040FDF725FE70602146FC
:10A6600088F00040FDF71FFEB06021462846FDF748
:10A670001AFEF0603168DFF8AC92C846C9F80A10DB
:10A680007168C9F80E10B168C9F81210F168C9F8FC
:10A690001610B068FEF710F804460D467068FEF715
:10A6A0000BF822462B4601F0B5FA04460D4601F0A0
:10A6B00071FB07468A46B068FDF7FEFF3A465346EF
:10A6C000FDF7D6FE82468B462046294601F0E2FB86
:10A6D000074600917068FDF7EFFF3A46009BFDF7D3
:10A6E000C7FE52465B46FDF71CFE074630688A46A9
:10A6F00080F00040FDF7E0FF53463A4601F08AFA49
:10A70000DFF824A206460F4600225346FDF7B0FEAE
:10A71000DFF818B2864B5A46FDF71CFFFDF7DFFF46
:10A72000C8F838000022534620462946FDF7A0FE0F
:10A730005A467F4BFDF70EFFFDF7D1FFC8F83C00EE
:10A74000A9F16400808800287ED07A48007800282B
:10A75000FAD004A8FEF7D0FD0698DFF8C48180F097
:10A760000041C8F81C100599C8F820100499C8F8D1
:10A770002410D8F81C10C9F81A10D8F82010C9F8FD
:10A780001E10D8F82410C9F822103046394601F0BE
:10A7900081FB0B9100902046294601F0FBFA83468D
:10A7A0008A46D9F82200FDF787FF5A465346FDF73F
:10A7B0005FFE0B9B009AFDF75BFECDE90C01204686
:10A7C000294601F067FB0B9100903046394601F0B5
:10A7D00061FB82468B46D9F81E00FDF76DFF52469D
:10A7E0005B46FDF745FE0B9B009AFDF741FE824656
:10A7F0008B463046394601F0CDFA06460F46D9F869
:10A800001A00FDF759FF32463B46FDF731FE52462E
:10A810005B46FDF786FDDDE90C23FDF782FDFDF7C4
:10A820005EFF82462046294601F034FB06460F466D
:10A83000D9F82200FDF740FF32463B46FDF718FEEF
:10A8400006460F46204600E03EE0294601F0A2FA07
:10A850000446D9F81E000D4680F00040FDF72CFF9D
:10A8600022462B46FDF704FE32463B46FDF759FDD6
:10A87000FDF735FF06465046FDF71EFF04460D4620
:10A880003046FDF719FF22462B4601F0C3F900229E
:10A89000254BFDF7EDFD254A254BFDF75BFEFDF74A
:10A8A0001EFFC8F82800D8F8280010F1FF4F06D383
:10A8B000D8F8280044462049FDF76BFCA062D8F880
:10A8C0002810C9F8401002E00020C9F840004C46AA
:10A8D000B9F82600FDF7CDFE01A90091236CE26BCB
:10A8E000A16BFEF749FA019820650298606503980C
:10A8F000A0650C486438D0F82610E165D0F82A101D
:10A900002166D0F82E10616650F8061F6164416818
:10A91000A1648068E0640FB00120BDE8F08F000002
:10A920006C0000201C070020008066404AD8124DB1
:10A93000FB210940000000200000B443044A002924
:10A94000116801D0014300E08143116070470000AD
:10A950001C380240044A0029116801D0014300E07C
:10A96000814311607047000024380240044A0029E6
:10A97000116801D0014300E081431160704700007D
:10A9800018380240044A0029116801D0014300E050
:10A99000814311607047000020380240044A0029BA
:10A9A000116801D0014300E081431160704700004D
:10A9B0001438024030B5264B1968A3F1040211F097
:10A9C0000C014FF4004405D004290AD008290AD00C
:10A9D0000C290BD01168C1F34231491C8C40046032
:10A9E0001BE01C4918E04FF4E10115E019681A68F2
:10A9F00001F47011184C02F4400204EB9141097803
:10AA0000012404EB92521C6814F4803F1ED04FF4D2
:10AA1000E1046143B1FBF2F1016019680F2202EA1F
:10AA200011110D4A0932545C0168E14041601C6813
:10AA3000072505EA1424145D21FA04F484601B68D8
:10AA400005EAD323D25CD140C16030BD014CE0E7C0
:10AA5000083802400024F4002E0000203EB51D4DB1
:10AA600000246878082800D004240422291D1A48EC
:10AA7000FDF780FB08B1042400E034B1A87820B1D0
:10AA80002046FFF719FB00203EBD144800888DF8D2
:10AA90000000E8788DF8010000208DF802008DF8A4
:10AAA00004008DF803008DF8050006216846FEF7C6
:10AAB000B8F88DF80600000A8DF80700A87818B1DC
:10AAC0000821684600F0FCF90649054808600120A5
:10AAD0003EBD0000EC07002034BF0008B80600208F
:10AAE0000400FA050CED00E02DE9F041012188B0E9
:10AAF0008803FFF72FFF01210320FFF71FFF374FC8
:10AB000005220D213846FEF766FA05220E21384649
:10AB1000FEF761FA05220F213846FEF75CFA02259E
:10AB20008DF8045000244FF460408DF806400090EA
:10AB30008DF8075003268DF8056069463846FEF704
:10AB400013FA01208DF804008DF806408DF80700F7
:10AB5000DFF88C80370200978DF805606946404623
:10AB6000FEF702FA39464046FEF752FA8DF80440E5
:10AB7000E8028DF8056000908DF806408DF80750CA
:10AB800069464046FEF7F0F9164D0021284600F0D0
:10AB900049F8284600F050F8ADF808404FF48270AC
:10ABA000ADF80A00ADF810406815ADF81200182095
:10ABB000ADF814000720ADF80C40ADF81800ADF862
:10ABC0000E40ADF8164002A9284600F06AF80121AF
:10ABD000284600F027F808B0BDE8F08100040240E4
:10ABE0000000024000380040FF2000F001B80000E3
:10ABF00070B50B4C05460221204600F047F80028AE
:10AC0000F9D02946204600F04AF80121204600F0FC
:10AC10003DF80028F9D0204600F03FF8C0B270BDE2
:10AC2000003800400029018802D041F0400101E0D5
:10AC300021F0400101807047114910B588420AD1C6
:10AC4000841401212046FFF7A9FE2046BDE81040EC
:10AC50000021FFF7A3BE0B49884202D10121041451
:10AC600004E0094988420AD10121C4132046FFF7B4
:10AC70007DFE2046BDE810400021FFF777BE10BDE5
:10AC80000030014000380040003C004002460020F7
:10AC900012890A4200D00120704780897047818163
:10ACA000704730B502884C8802F441530A88CD8839
:10ACB00022438C882C4322430C8922434C89224313
:10ACC0008C892243CC8922431A430280828B22F44E
:10ACD00000628283098A018230BD70470CB5002270
:10ACE0002C4900920192086840F4803008604FF4CB
:10ACF000A043086800F4003001900098401C0090C8
:10AD0000019810B900989842F3D1086880033FD5A4
:10AD1000012001902048026842F0040202600268AB
:10AD200042F002020260026842F001020260194829
:10AD30002430026842F080520260C2141748026058
:10AD40004268D206FCD413480830026802600268E8
:10AD5000026002680260026822F47D0202600268FA
:10AD600042F4110202600A6842F080720A600A68C6
:10AD70009201FCD5016821F003010160016841F0F6
:10AD8000030101600168C1F381010329FAD10CBDFF
:10AD900001920CBD00380240003C024000700040AF
:10ADA00030B52648016811B10168491E0160244888
:10ADB0000168491C0160234A1168491C116004683C
:10ADC00020230021A4F5E0659E3D2BD00468B4F556
:10ADD000FA6F02D301601C48038013680120B3F5A9
:10ADE0007A7F18D31160194A53685B1C5360184A64
:10ADF00013685B1C1360174B1C68641C1C60126892
:10AE0000B2F5647F01D9144A10701A68052A02D37A
:10AE10001960124A1070124A137833B11078401E2C
:10AE2000107030BD0848801CD6E70E4A537813B125
:10AE3000137803B910700C48017030BD0400002075
:10AE40000800002018000020180402401C07002001
:10AE50000C00002014000020100000201100002031
:10AE60001C000020EC0700202D000020104810B529
:10AE7000016841F4807101600D4908310A680D4B89
:10AE80001A400A6002680C4B1A400260026822F401
:10AE900080220260086820F47D000860091D0020FF
:10AEA0000860FFF71BFF05494FF00060086010BD08
:10AEB000003802400CC0FF88FEFFFEEE08ED00E007
:10AEC00070B50A4C0D46064610212046FEF7A0F844
:10AED00000BF2A463146064800F01AFA00BF10218A
:10AEE0002046BDE87040FEF791B800000000024027
:10AEF00000380140F0B587B0074625208DF81800CE
:10AF000001258DF819508DF81A508DF81B5006A8A0
:10AF1000FFF714FB01218803FFF734FD214E0722C0
:10AF200006213046FEF757F8072211463046FEF755
:10AF300052F84020009002208DF8040003208DF884
:10AF4000050000248DF806408DF80750694630460C
:10AF5000FEF70AF88020009069463046FEF704F8B4
:10AF6000ADF80C40ADF80E40ADF81040ADF814400F
:10AF70000C200D4CADF81200029702A9204600F0FB
:10AF80005DF9012240F22551204600F03EF94021B2
:10AF9000204600F001F90121204600F006F907B033
:10AFA000F0BD0000000402400038014003480021C9
:10AFB000416001600248C17001707047A00000202C
:10AFC0001D000020054803C8814202D14FF6FF70E2
:10AFD00070474FF47A7000F003B80000A000002022
:10AFE0000949D1E9003203E0401E0004000C08D0FA
:10AFF0009A42F9D0C2F308000844521C4A60007A11
:10B0000070474FF6FF707047A00000202DE9F04117
:10B010001C4D40F225561A4C3146284600F0D6F811
:10B0200000282AD0184801220270184802702F46C2
:10B03000284600F07EF9C5B23146384600F0AFF838
:10B04000134B1878002818D1D4E90001114A814225
:10B0500002D01678002E10D005261670411AB1F5D0
:10B06000007F06D2C0F30800204405722068401C0F
:10B07000206020782179401A5870BDE8F0810000E6
:10B08000A0000020003801402C0000202D000020EE
:10B09000EC0700201C0000202DE9F0411A4E40F280
:10B0A0002557184C3946304600F090F8002826D035
:10B0B000304600F03EF9C5B23946304600F06FF830
:10B0C0001248007800281AD1D4E900010A1AD305E1
:10B0D0000F4A02D01378002B11D003231370411AAA
:10B0E000B1F5007F06D2C0F3080020440572206845
:10B0F000401C206020782179401A06490870BDE87C
:10B10000F0810000A8020020004400402000002040
:10B11000230000201E0000202DE9F0411A4E40F2CD
:10B120002557184C3946304600F050F8002826D0F4
:10B13000304600F0FEF8C5B23946304600F02FF830
:10B140001248007800281AD1D4E900010A1AD30560
:10B150000F4A02D01378002B11D003231370411A29
:10B16000B1F5007F06D2C0F30800204405722068C4
:10B17000401C206020782179401A06490870BDE8FB
:10B18000F0810000B00400200048004022000020B0
:10B19000240000201F000020C943018070470A0AD4
:10B1A00001219140C943018070470029818902D063
:10B1B00041F4005101E021F40051818170470246C1
:10B1C000002012880A4200D00120704770B501F0BB
:10B1D0001F0501260024C1F3421306FA05F2012BD4
:10B1E0000FD0022B0FD0838A4FEA1121008813421F
:10B1F00006FA01F600EA060001D000B1012420465B
:10B2000070BD8389F0E7038AEEE710B5C1F34213FE
:10B2100001F01F040121A140012B07D0022B07D010
:10B220001430002A026805D00A4304E00C30F8E725
:10B230001030F6E78A43026010BD00007FB5044677
:10B24000008A0D4620F44051E88808432082A189F5
:10B2500041F20C608143A8882A8910436A890A4315
:10B260001043A081A08A20F44071A8890843A082DD
:10B270006846FFF79FFB1948844201D1039800E01C
:10B280000298A189090400EBC00101EB00102968B4
:10B2900001D5490000E08900B0FBF1F06422B0FB69
:10B2A000F2F109010B096FF018056B4300EB830005
:10B2B000A3891D044FF0320306D503EBC000B0FB99
:10B2C000F2F000F0070005E003EB0010B0FBF2F035
:10B2D00000F00F00084320817FBD000000380140CE
:10B2E00070B50D46064600244021FFF768FF294649
:10B2F000304600F022F84FF4A02540213046FFF7F9
:10B300005EFF002803D12046641CA842F5D370BD1F
:10B310002DE9F04116460D460746002405E015F8D4
:10B32000011B3846FFF7DCFF641CB442F7D3BDE8CD
:10B33000F0818088C0F308007047C1F30801818064
:10B340007047FEE7490050EAC12018BF04204A0DAB
:10B3500018BF40F0010040F2FF72B2EB515F08BF2E
:10B3600040F00200012808BF052070472DE9F74F83
:10B37000144694B00021C4E902111599079121F0F7
:10B380000045C9498D4206DC1599C4E9000117B092
:10B390000020BDE8F08FC549DFF814A3A9423CDDC9
:10B3A0000799C44E0029C44FC44A1599534619DD64
:10B3B000FDF758F8554506D0C14AC24BFDF752F883
:10B3C000C4E900010AE04FF0D352BE4BFDF74AF842
:10B3D00032463B46FDF746F8C4E9000117B00120AC
:10B3E000BDE8F08FFCF79DFF554506D0B44AB54B3C
:10B3F000FCF797FFC4E900010AE04FF0D352B14BCC
:10B40000FCF78FFF32463B46FCF78BFFC4E9000197
:10B4100017B04FF0FF30BDE8F08FAB49A942159946
:10B4200078DB21F0004183468846A84AA84BFDF707
:10B430001FF80022A74BFCF774FFFDF74FFA0990A5
:10B44000FDF71CF906460F469C4A5346FDF710F8D7
:10B4500043465A46FDF709F880468A46984A994B72
:10B4600030463946FDF704F82A0D01250B92424675
:10B470005346FCF7FAFF032DC4E9000139D00B98BD
:10B48000C1F30A51401A05EB45111139814230DAF6
:10B490009148C346784400EB0510CDF80CA00C9001
:10B4A000D0E9002330463946FCF7E2FF02460B465E
:10B4B0000491069058460399FCF7D4FF80468A46CB
:10B4C00002460B4658460399FCF7CCFF049B069AAC
:10B4D000FCF7C8FF83460C9803913946D0E9022354
:10B4E0003046FCF7C5FF5A46039BFCF7BBFF6D1CBB
:10B4F000BDE707980028A2BF099817B0BDE8F08FF4
:10B50000616881F000416160099817B04042BDE870
:10B51000F08FFFE784461598C1F31301C0F30A507A
:10B52000A0F2F5304FEA601800F01F06C6F12000C7
:10B53000139000200690079041F4801E05206D4670
:10B5400076B1664A08EB00017A4452F8213002EBEA
:10B550008101B3404A68139922FA01F1194305E0C9
:10B560005F4908EB0002794451F82210A1FB0E2735
:10B57000A1FB0C131A449A4234BF0123002303EBAE
:10B58000070A05EB8003D3E901B70F448F4234BFAC
:10B590000121002193448B4411B1934502D903E06A
:10B5A000934501D2012100E00021C3E901B75144D4
:10B5B00045F82010011EA0F10100C1DC0298059F92
:10B5C00000F10050800F12900298DDE903568000D0
:10B5D000FDF754F8834628460D91FDF760F86FF0AB
:10B5E0001D02FDF726F8CDE90E013046FDF757F8AC
:10B5F0006FF03D02FDF71DF880468A463846FDF79C
:10B600004EF86FF05D02FDF714F8074642465346C8
:10B610001191FCF786FEDDE90E23FCF782FE5A4607
:10B620000D9BFCF77EFE00250E465A4628460D9BD4
:10B63000FCF718FFDDE90E23FCF714FF42465346E2
:10B64000FCF710FF3A46119BFCF70FFFDFF898A0BC
:10B65000244A5346FCF70CFF07468846234A244BEE
:10B6600031462846FCF704FF3A464346FCF759FEAC
:10B67000074688464FF0A842534631462846FCF715
:10B68000F7FE3A464346FCF74CFE159A12F0004F7F
:10B6900004D0129A81F0004152421292C4E9000192
:10B6A000129817B0BDE8F08FFB21E93F7CD902402A
:10B6B000FB21F93F7370032E8A19A33B000040540D
:10B6C0003163621A61B4D03DFB21394183C8C96D31
:10B6D000305FE43F0000E03F780B0000F40A000018
:10B6E000D60A0000182D4454FB21F93D3326A6113B
:10B6F000460B113C2DE9FF4D21F0004807460C4652
:10B70000B8F1795F08DAFDF7E9F8002801BF0020F9
:10B71000324904B0BDE8F08D3A462346104619463A
:10B72000FCF7A6FE054602462D480E460B460621AE
:10B73000784400F05DF82A463346FCF799FEDDE9CF
:10B74000022382468B4638462146FCF791FE04468A
:10B750000F4652465B4628463146FCF789FE224694
:10B760003B46FCF77FFE07468A464FF0FF322846ED
:10B770003146FCF75EFF1B4A90450ADA3A465346CB
:10B78000FCF770FE04B00022BDE8F04D134BFCF74F
:10B790006CBE154A4245A8BFA8F500154FF000043D
:10B7A000B8BF124D22462B46FCF75CFE0646884683
:10B7B00022462B4600200949FCF754FE04460D465C
:10B7C0003A46534630464146FCF74CFE04B022460A
:10B7D0002B46BDE8F04DFCF748BE00000000F03FEE
:10B7E000A40800003333D33F0000E93F0000D23FFC
:10B7F0002DE9F0414F1E00EBC7010446D1E90001DD
:10B8000015461E4637F006020DD02A463346FCF791
:10B810002FFE7F1E04EBC703D3E90023FCF781FD55
:10B8200037F00602F1D1022F25D0042F13D0062FB6
:10B8300018BFBDE8F0812A463346FCF719FED4E96B
:10B840000A23FCF76EFD2A463346FCF711FED4E9C5
:10B850000823FCF766FD2A463346FCF709FED4E9C7
:10B860000623FCF75EFD2A463346FCF701FED4E9C9
:10B870000423FCF756FD2A463346FCF7F9FDD4E9CC
:10B880000223FCF74EFD2A463346FCF7F1FDD4E9CE
:10B890000023BDE8F041FCF744BD00002DE9FF4D59
:10B8A000054621F0004084B00C46B0F1795F0BDA18
:10B8B0002846FFF747FD042808BF00F07DF828461A
:10B8C00008B02146BDE8F08D2A460B461046FCF72D
:10B8D000CFFD06460F462A462346FCF7C9FD8046A3
:10B8E00026488A4632463B4605217844FFF780FFCA
:10B8F00083461098029160B3214A224B404651463C
:10B90000FCF7B6FDCDE900015A4640465146029B80
:10B91000FCF7AEFD82468846DDE906014FF0FF32B6
:10B92000FCF787FE52464346FCF79CFD32463B46F9
:10B93000FCF79EFDDDE90623FCF794FDDDE900231D
:10B94000FCF790FD08B02A462346BDE8F04DFCF711
:10B950008CBD0B465A4630463946FCF789FD084AED
:10B96000084BFCF7DEFC42465346FCF781FD08B06D
:10B970002A462346BDE8F04DFCF7D3BCEA07000099
:10B98000495555555555C5BF020E62F30701020CC6
:10B9900062F30F21020A62F3174160F31F61084648
:10B9A00070470122FCF745BEFCF7BBBC00221346E2
:10B9B00010461146FCF7CEBD024A00201107FCF7E5
:10B9C00038BE000001FDFFFF02E008C8121F08C1D9
:10B9D000002AFAD170477047002001E001C1121F10
:10B9E000002AFBD170470000014908607047000041
:10B9F000680000202DE9F84F04460D4621F0004074
:10BA000000917349814211DC7249884201DC06D100
:10BA10002CB120462946BDE8F84FFFF7C2BF6E485B
:10BA2000002DCCBF6D496E49BDE8F88F6D4981424C
:10BA300011DD6D498142D8BF4FF0FF366DDD2046E4
:10BA40002946FFF77FFC042808BFFFF7B5FF204613
:10BA50002946BDE8F88F6549654F25F000458142CC
:10BA600033DD6449814219DD002632464FF08043C0
:10BA700020462946FCF755FC80468A46012220468E
:10BA80002946FCF7D6FD00223B46FCF7EBFC42467C
:10BA90005346FCF75FFD04460D463EE001260022BA
:10BAA000BA463B4620462946FCF73BFC80460F46FB
:10BAB0000022534620462946FCF7D4FC42463B462A
:10BAC000FCF748FD04460D4627E04B4981421BDD4B
:10BAD000DFF828A102260022534620462946FCF71B
:10BAE000C7FC00223B46FCF71CFC80460F460022A8
:10BAF000534620462946FCF7B5FC42463B46FCF738
:10BB000029FD04460D4608E0032622462B46002068
:10BB10003B49FCF71FFD04460D4622462B461046C6
:10BB20001946FCF7A5FC8B46824602460B46FCF7FD
:10BB30009FFC07460246334888460B460621784458
:10BB4000FFF756FE52465B46FCF792FC82462E48B3
:10BB50008B463A46434605217844FFF749FE3A466C
:10BB60004346FCF785FC02460B46002E50465946DC
:10BB70000CDAFCF7D6FB22462B46FCF779FC01B029
:10BB800022462B46BDE8F04FFCF76FBCFCF7C9FB23
:10BB900022462B46FCF76CFC1C4A7A4402EBC60397
:10BBA000D3E90023FCF75EFC22462B46FCF75AFC47
:10BBB000174A7A4402EBC603D3E90023FCF755FC8D
:10BBC000009A002AB8BF81F00041BDE8F88F00005C
:10BBD000000010440000F07F182D4454FB21F93F71
:10BBE000FB21F9BF0000DC3F0000203E0000F33FD6
:10BBF0000000F03F0000E63F008003400000F83FF7
:10BC00000000F0BF6604000024040000C20300002E
:10BC10008A0300002DE9F04D9446CCF1000423F096
:10BC200000464CEA0404524F46EAD4749A468846C9
:10BC300021F00042BC4206D8454240EA050442EAEF
:10BC4000D474BC4204D9BDE8F04D6246FFF7ACBEE7
:10BC5000AAF14055A5F17F6555EA0C040BD00224EA
:10BC600004EAAA74434DDFF810E144EAD87452EABA
:10BC7000000B04D00CE0BDE8F04DFFF7BBBE002C7C
:10BC800014BF012CBDE8F08D022C30D0032C32D033
:10BC900056EA0C0B0AD0BE4220D1BA4209D126F096
:10BCA000804622F080423346114617E000291ADB15
:10BCB00025E0DFF8C8B0FB44002C04BFDBE900013D
:10BCC000BDE8F08D012C02BFDBE9000181F00041ED
:10BCD000BDE8F08D022C0AD0032C0CD0BA4212D150
:10BCE000B8F1000F0BDA23482549BDE8F08D28464E
:10BCF0002449BDE8F08D28467146BDE8F08D1D4809
:10BD00002149BDE8F08D921B12153C2AC4BF194889
:10BD10001D490EDCBAF1000FBEBF12F13C0F00202E
:10BD2000014606DB6246FCF715FC21F00041FFF7F7
:10BD300061FE002C08BFBDE8F08D012C04BF81F02E
:10BD40000041BDE8F08D114A114B022C07D0FCF7E1
:10BD500089FB2A46BDE8F04D0A4BFCF783BBFCF794
:10BD600081FB2A46BDE8F04D064BFCF77EBB000088
:10BD70000000F07F182D4454FB2109C04E03000041
:10BD8000FB21F9BFFB210940FB21F93F075C14337C
:10BD900026A6A13C00B5244B21F0004287B09A4270
:10BDA000DCBF0022134629DD204B9A4208D140B95E
:10BDB0004FF00100FFF718FEFFF7F8FD07B000BDD8
:10BDC00003DBFFF7EEFD07B000BD02AAFFF7CEFAD6
:10BDD00010F0030104BF0DF1080C9CE80F000DD01A
:10BDE000012001290ED0022914D00DF1080C009079
:10BDF0009CE80F00FFF752FD07B000BDFFF77AFC8B
:10BE000007B000BD0DF1080C00909CE80F00FFF793
:10BE100045FD05E00DF1080C9CE80F00FFF76AFCFA
:10BE200007B081F0004100BDFB21E93F0000F07F39
:10BE3000154914480860FDF714FEFDF721FEFCF7D4
:10BE40000BFF6420FCF72AFFFDF754FAFCF704FF10
:10BE5000FCF763FDFCF700FF10210C48FDF7D6F856
:10BE60000A20FCF71BFFFDF7F3F809494828487042
:10BE700006D000200870FEF7AFFBFCF7EDFEFAE7F6
:10BE80000120F7E70080000808ED00E00000024014
:10BE90000000002000B5254B21F0004287B09A42F7
:10BEA00003DC0022134600922BE0214B9A4208D17A
:10BEB00040B94FF00100FFF797FDFFF777FD07B09E
:10BEC00000BD03DBFFF76DFD07B000BD02AAFFF761
:10BED0004DFA10F003014FF001000DD0012914D0EC
:10BEE00002291AD00DF1080C9CE80F00FFF702FCA4
:10BEF00007B081F0004100BD0DF1080C00909CE8F6
:10BF00000F00FFF7CBFC07B000BD0DF1080C9CE85B
:10BF10000F00FFF7EFFB07B000BD0DF1080C00901C
:10BF20009CE80F00FFF7BAFCE2E70000FB21E93FC5
:10BF30000000F07F33557799446688AA000000001E
:10BF40004FBB610567ACDD3F182D4454FB21E93F31
:10BF50009BF681D20B73EF3F182D4454FB21F93F20
:10BF6000E2652F227F2B7A3C075C143326A6813CA6
:10BF7000BDCBF07A8807703C075C143326A6913C51
:10BF8000C4EB98999999C9BF711623FEC671BCBFBD
:10BF90006D9A74AFF2B0B3BF9AFDDE522DDEADBF25
:10BFA0002F6C6A2C44B4A2BF0D5555555555D53F3D
:10BFB000FF8300922449C23F6E204CC5CD45B73F58
:10BFC000513DD0A0660DB13FEB0D76244B7BA93FD0
:10BFD00011DA22E33AAD903F4C5555555555A53FE2
:10BFE0007751C1166CC156BF9015CB19A001FA3E0E
:10BFF000AD529C804F7E92BEC4B1B4BD9EEE213E38
:10C00000D43888BEE9FAA8BD000000000000000096
:10C0100000004054FB21F93F3163621A61B4D03D06
:10C020000000601A61B4D03D7370032E8A19A33BDF
:10C030000000002E8A19A33BC14920259A837B3931
:10C0400000000000000000006E83F9A22915444E94
:10C05000D15727FCC0DD34F5999562DB4190433C14
:10C06000AB6351FE61C5BBDE3A6E24B7E0D24D42F0
:10C07000EA2E49061C92D1091CEB1DFE3EA729B1F0
:10C08000F53582E88444BB2E26709CE9417E5FB47E
:10C0900039D69139F43953838B5F849C3B28F9BDA1
:10C0A000FF97F81F0F9805DE8B112FEF1F6D0A5AAF
:10C0B000CF7E366DB709CB27663F464F2DEA5F9E90
:10C0C000C7BA27757BF1E5EBF739073DEA92528A4B
:10C0D000B15FFB6B085D8D1FA6F810111111813F38
:10C0E000D561C119A0012ABF7DFEB157E31DC73E2E
:10C0F000EB9C2B8AE6E55ABE7CD5CF5A3AD9E53D72
:10C1000020C10008000000206C000000C8B9000831
:10C110008CC100086C00002084190000D8B9000808
:10C12000000000000000000000000000000000000F
:10C1300000010000000000000000000005000000F9
:10C14000000000000000000000F0000000000304F8
:10C1500006080C1018203000000000010203040142
:10C1600002030406070809000000C20103040608D0
:10C170000C10182030000000000000000001020335
:0CC1800004060708090000000000000091
:04000005080080F57A
:00000001FF
