:020000040800F2
:10800000F0150020098100083DA500080D97000823
:10801000619E0008218C0008C7B200080000000023
:1080200000000000000000000000000067AC000835
:10803000998C000800000000F9A500082DAD00088B
:108040002381000823810008238100082381000880
:108050002381000823810008238100082381000870
:108060002381000823810008238100082381000860
:108070002381000823810008238100082381000850
:108080002381000823810008238100082381000840
:108090002381000823810008238100082381000830
:1080A0002381000823810008238100082381000820
:1080B000238100082381000823810008119700080C
:1080C0002381000823810008238100082381000800
:1080D0002381000899AF000825B00008A1B000086E
:1080E00023810008238100082381000823810008E0
:1080F00023810008DFF80CD000F0CEFB00480047D9
:10810000B5BD0008F0150020064880470648004726
:10811000FEE7FEE7FEE7FEE7FEE7FEE7FEE7FEE737
:10812000FEE7FEE7F9AD0008F580000840EA01032C
:108130009B0703D009E008C9121F08C0042AFAD21D
:1081400003E011F8013B00F8013B521EF9D27047E1
:10815000D2B201E000F8012B491EFBD27047002289
:10816000F6E710B513460A4604461946FFF7F0FF36
:10817000204610BD30B505460020034600E05B1CDC
:10818000934205D2EC5CC85C201A01D1002CF6D1D8
:1081900030BDF0B480EA0102D40F4200B2EB410FCF
:1081A00002D20246084611464A0042D0C30DDDB253
:1081B000C1F3C752AD1A202D35DAC1F3160141F4CF
:1081C000000204B15242C5F1200602FA06F12A412A
:1081D0001044B3EBD05F23D0C4B1012DA0EBC3504A
:1081E00009DCF0BC4FF0004202EAC352DBB200F5FA
:1081F000000000F0C5BA400000F1807000EBC350F1
:10820000A0F1807040EAD170490009E0490841EAD4
:10821000C071A0EBC35000F50000400800EBC35054
:10822000F0BC00F0A4BA6142012202EB4101001B44
:10823000F6E7F0BC704781F00041AAE780F000400B
:10824000A7E780EA010210B502F00043400022D007
:108250004A001FD0010E01EB1261C0F35600C2F3B9
:10826000560240F4000042F40002A0FB0220000489
:108270007F39140400D0401C50EA124001D4400061
:10828000491EC2B20C0604EBD010401C4008802AE4
:1082900002D003E0002010BD20F00100002900DA28
:1082A0000020184310BD30B480EA010202F00045FE
:1082B00030F0004221F0004013D090B1C30DD40D36
:1082C000C2F31601C0F31600E41A41F4000140F4B1
:1082D00000027D34914201D3641C00E04900002C6F
:1082E00002DA30BC002070474FF4000000239142B6
:1082F00001D3891A034340084FEA4101F7D151B134
:10830000914202D14FF0004105E002D24FF001014D
:1083100001E06FF0010103EBC450284430BC00F0D1
:1083200026BA2DE9FE4F804681EA0300C00F0C46B5
:10833000009021F0004123F00045B8EB0200A94174
:1083400005D24046214690461C460B46024623F085
:108350000040104347D0270DC7F30A00C3F30A516A
:108360000290401A019040286BDAC3F3130040F4E6
:10837000801B0098924620B10023D2EB030A63EBE6
:108380000B0B01985946C0F14002504600F0CEF95F
:1083900006460D4650465946019A00F0D6F910EBB4
:1083A00008006141002487EA115284EAE7731A4306
:1083B00040D0009A62B3019A012A4FEA075215DCB5
:1083C000001B61EB02014FF0004202EA0752CDE9C7
:1083D0000042001C41F5801132462B4600F00DFA98
:1083E00003B0BDE8F08F40462146F9E7001B61EB82
:1083F0000201001C41F5801300185B412018A2F512
:10840000001747EB030140EAD570B6196D4111E042
:108410006D084FEA360645EAC0754FEA0752001B61
:1084200061EB0201001C41F5801149084FEA300060
:108430000019514132462B4603B0BDE8F04F00F021
:10844000CDB90098012240000023D0EB020263EB7B
:10845000E073009821464FEAE074B8EB000061EB4E
:108460000401E9E783F000435BE781F0004158E74E
:108470002DE9FE4F81EA030404F0004421F000419D
:1084800000944FF0000B23F0004350EA01045ED04B
:1084900052EA03045BD0C3F30A54C1F30A552C44D7
:1084A000A4F2F3340194A0FB0254C1F3130141F48C
:1084B0008011C3F3130343F4801301FB024400FB58
:1084C000034E840A970A44EA815447EA8357A4FB7F
:1084D000076802958D0A05FB07854FEA932C04FB7C
:1084E0000C542705029D4FEA065847EA1637B5EBAC
:1084F00008056EEB070C870E920E47EA811742EAD9
:108500008312A7FB0201B6EB0B0164EB00042B0DF9
:1085100043EA0C335E1844EB1C50DA465146E7FB45
:108520000201C5F313044FEA0B3343EA14534FEA35
:108530000432019C43EA0603A4F10C040294009C5B
:10854000CDE900B400F059F903B0BDE8F08F002088
:108550000146F9E72DE9F04D81EA030404F0004BF0
:1085600021F0004514464FF0000A23F0004150EA84
:10857000050220D054EA01021DD0C5F30A57024675
:10858000C5F31303C1F31300C1F30A5640F4801579
:1085900043F48013A7EB0608101BD64608F2FD38FB
:1085A00073EB050002D308F1010801E092185B416A
:1085B000B8F1000F03DA00200146BDE8F08D00207D
:1085C0004FF48011064684460EE0171B73EB050737
:1085D00005D3121B63EB050306434CEA010C490863
:1085E0004FEA300092185B4150EA0107EDD152EAA0
:1085F000030012D082EA040083EA0501084305D093
:10860000101BAB4106D20122002306E000224FF0EE
:10861000004302E06FF0010253101AEB06004CEB2E
:10862000085110EB0A0041EB0B01BDE8F04D00F0E2
:10863000D5B870B521F0004303430CD0C1F30A55FF
:108640000024D5EB040564EB0403D617AD1AB3413F
:1086500002DB0020014670BD201841EB025170BDC5
:10866000C10F80EAE0700844CA079623002100F099
:1086700087B896230022114600F082B80EB5C10FCC
:1086800080EAE0700844CA07002140F233438DE8D5
:108690000E000A460B4600F0B0F803B000BD0EB560
:1086A00040F2334102910021CDE900110A460B4608
:1086B00000F0A3F803B000BD00F0004230F000402D
:1086C0000AD0C10D01F56071C0F3160042EA0151F4
:1086D000C20840071143704700200146704701F06F
:1086E000004330B421F0004150EA010206D00A0DE7
:1086F000A2F56072C1F31301002A02DC30BC002035
:108700007047440F44EAC104C100E01830BC00EBDC
:10871000C25000F02CB80000002801DBC0F100407E
:10872000002901DBC1F1004188427047202A04DBA7
:10873000203A00FA02F1002070479140C2F1200374
:1087400020FA03F3194390407047202A06DBCB1729
:10875000203A41FA02F043EAE07306E041FA02F3FC
:10876000D040C2F1200291400843194670470029C9
:10877000A8BF7047401C490008BF20F001007047A7
:1087800010B4B0FA80FC00FA0CF050EA010404BF07
:1087900010BC704749B1CCF1200421FA04F411FA5D
:1087A0000CF118BF012121430843A3EB0C01CB1DA1
:1087B0004FEA00614FEA102042BF002010BC704712
:1087C00000EBC35010440029A4BF10BC7047401CEC
:1087D000490008BF20F0010010BC704710B5141EFE
:1087E00073F1000408DA401C41F1000192185B416A
:1087F0001A4301D120F0010010BD2DE9F04D924641
:108800009B4611B1B1FA81F202E0B0FA80F2203257
:108810009046FFF78BFF04460F4640EA0A0041EA04
:108820000B0153465A46084313D0114653EA010040
:1088300019D0C8F14002504600F040F805460E46F7
:10884000504659464246FFF771FF084305D00120C4
:1088500004E020463946BDE8F08D0020054346EA95
:10886000E0762C4337430A986305E40AA0EB08003E
:108870000022FD0A44EA47540A3002D5002001468E
:10888000E9E7010510196941DDE908450019694169
:10889000BDE8F04DA2E70000064C074D06E0E06899
:1088A00040F0010394E8070098471034AC42F6D337
:1088B000FFF724FC68C0000888C00008202A04DBF9
:1088C000203A21FA02F00021704721FA02F3D04049
:1088D000C2F12002914008431946704770B5C1F3B8
:1088E0000A5201F000450024C1F3130140F2FF33A6
:1088F00041F480119A4201DA002070BD40F2334306
:108900009A42A2F2334203DC5242FFF7D7FF00E063
:1089100090402C43F1D0404270BD10B502F0AAF84F
:10892000052000F0BBF952212F2000F05BF9052053
:1089300000F0B4F90321282000F054F901212A2085
:1089400000F050F9C1212C2000F04CF900212D201D
:1089500000F048F9BDE810404FF4967000F09EB961
:1089600070B50D4E04464FF400752946304600F0B0
:108970004DFB00BF00BF012000EB4400C0B202F07D
:10898000FDF802F0F7F8044600BF00BF2946304664
:1089900000F03EFB204670BD000002402DE9F04F84
:1089A000ADF51B7D8346C8216846FFF7D8FBC8217B
:1089B00032A8FFF7D4FBC82164A8FFF7D0FB002042
:1089C00098909790969032240620FFF7C9FF0502F1
:1089D0000720FFF7C5FF054340F23C707C4E7D4FFA
:1089E000DFF8F4818542A5F23C750BD3A8B2FFF7FE
:1089F00056FE32463B46FFF7ADFD00224346FFF7E9
:108A000034FD0BE0684280B2FFF749FE32463B4638
:108A1000FFF7A0FD00224346FFF783FCFFF75FFE50
:108A20000025E9460DF1C80A9990DFF8B0814FF6AC
:108A3000FF764FF480573946404600F0E0FA08B917
:108A4000761EF8D20820FFF78BFF06060920FFF7F5
:108A500087FF46EA00460A20FFF782FF46EA002029
:108A60004FEA20380B20FFF77BFF06060C20FFF7AC
:108A700077FF46EA00460D20FFF772FF46EA002026
:108A800006130E20FFF76CFF07060F20FFF768FFA5
:108A900047EA00471020FFF763FF47EA002007136B
:108AA0004046FFF7EBFD6FF011084246FFF7C1FDAE
:108AB000FFF715FE49F825003046FFF7DFFD424677
:108AC000FFF7B7FDFFF70BFE4AF825003846FFF722
:108AD000D5FD4246FFF7ADFDFFF701FE0DF5C87865
:108AE00048F825006D1CA5429FD3002635E0751C73
:108AF00030E04F4659F8251059F82600FFF70CFED4
:108B000007D257F8260057F8251047F8261047F8DF
:108B1000250057465AF825105AF82600FFF7FCFDA5
:108B200007D257F8260057F8251047F8261047F8BF
:108B30002500474658F8251058F82600FFF7ECFDA9
:108B400007D257F8260057F8251047F8261047F89F
:108B500025006D1CA542CCD3761CA642C7D36FF06E
:108B6000030000EB54050620464600EB540412E0D7
:108B700059F825109898FFF70CFB98905AF8251093
:108B80009798FFF706FB979056F825109698FFF7F1
:108B900000FB6D1C9690AC42EAD8114C9898214687
:108BA000FFF781FBCBF8000021469798FFF77BFB8E
:108BB000CBF8040021469698FFF775FBCBF8080028
:108BC0009998CBF80C000DF51B7DBDE8F08F0000E7
:108BD0009A99999999192240000039400000024061
:108BE000000020412DE9F0410C4D0E4607464FF4A0
:108BF00000742146284600F009FA00BF00BF78063D
:108C0000000E01F0BBFF304601F0B8FF00BF00BF0F
:108C100021462846BDE8F04100F0FAB900000240C4
:108C2000FEE770B504464FF6FF7000234AF20105D7
:108C30000FE014F8012B50400022C60702D085EA4D
:108C4000500000E04008521CD2B2082AF5D35B1C49
:108C5000DBB28B42EDD370BD0821014800F0CBB9E7
:108C6000000002400248016841F0010101607047C4
:108C7000043C024005480068C00705D00348044989
:108C8000083001600349016070470000043C024065
:108C9000EFCDAB89050403027047000001B503481E
:108CA0000099016001680029FCD108BD0400002082
:108CB00030B599B00C46054660216846FFF74FFA7B
:108CC000602C00D9602422466946284600F036F818
:108CD00019B030BD70B50D460A4916464418FFF765
:108CE000C9FF00F0FFF80128FBD003E014F8010BE6
:108CF00005F8010B761EB6B2F8D2BDE87040FFF75A
:108D0000B1BF00008002080870B50D460A4916463A
:108D10004418FFF7AFFF00F0E5F80128FBD003E0AF
:108D200014F8010B05F8010B761EB6B2F8D2BDE8B7
:108D30007040FFF797BF00000000080870B50E46AE
:108D40000C4915464418FFF795FF00F0CBF80428AE
:108D5000FBD107E016F8010B04F8010B00F0C2F894
:108D60000128FBD06D1EADB2F4D2BDE87040FFF714
:108D700079BF0000800208082DE9F84F80F000401C
:108D80000A9C00909A4616460846FFF795FC504FFD
:108D9000DFF840813A464346FFF76AFBDFF8389137
:108DA00000224B46FFF7D6FBFFF799FC05463046FD
:108DB000FFF782FC3A464346FFF75AFB00224B4638
:108DC000FFF7C8FBFFF78BFC06465046FFF774FC25
:108DD0003A464346FFF74CFB00224B46FFF7BAFBEF
:108DE000FFF77DFC81462846FFF766FC0F460546E7
:108DF00003F006F8FFF773FC80462846394602F078
:108E00008BFFFFF76CFC83463046FFF755FC0F469F
:108E1000054602F0F5FFFFF762FC06462846394694
:108E200002F07AFFFFF75BFC07464846FFF744FC79
:108E30008946054602F0E4FFFFF751FC82462846CA
:108E4000494602F069FFFFF74AFC81464146FFF7B9
:108E5000F8F93946FFF7F5F9054631465046FFF770
:108E6000F0F92946FFF795F9054641465046FFF7C8
:108E7000E8F9804631464846FFF7E3F906464046A2
:108E80003946FFF7DEF93146FFF7D5F90646394690
:108E90005846FFF7D6F9114F804639462846FFF766
:108EA000D0F90099FFF7CDF9206039463046FFF739
:108EB000C8F90099FFF7C5F9606009494046FFF716
:108EC000C0F90099FFF7BDF9A060BDE8F88F000078
:108ED0004AD8124DFB210940008066400000204125
:108EE000000020C1084904200A68D20701D00120EF
:108EF00070470A68D20501D502207047096811F44D
:108F0000F05FFAD003207047183C02407CB5012185
:108F1000032001F01FFD01248DF8044000261820D5
:108F20008DF8066000908DF8074003258DF80550F8
:108F300069460B4800F018F88DF804408DF806607B
:108F40008DF807402220074C00908DF805506946A7
:108F5000204600F009F80221204600F059F87CBDB7
:108F60000000024000040240F0B5002201274FF04B
:108F7000030E0B6807FA02F52B40AB4227D10668B7
:108F8000530091F804C00EFA03F4A6430CFA03FC54
:108F90004CEA060CC0F800C00E79012E01D0022E5A
:108FA0000FD1866891F805C0A6430CFA03FC4CEA81
:108FB000060CC0F808C08688AE438D7995403543CD
:108FC0008580C568A543CC799C402C43C460521C65
:108FD000102ACED3F0BD4B07DB0E9A40C90810B55E
:108FE00000EB8100016A0F249C40A1430162016AE9
:108FF0001143016210BD828A4A4082827047024654
:109000000020128A0A4200D0012070474183704735
:10901000018370471FB500200090019002900390DB
:10902000102269464FF4C070FFF76EFE074900201A
:109030006A4601EB400432F810305BBA2385401CCD
:10904000C0B20828F5D304B0012010BD1C040020D4
:109050002DE9F74F5D4E4FF4162A14460D46C6F81B
:1090600000A04FF400385A4F03E03068411E3160D1
:109070006FD34146384600F061FC0028F5D101214C
:10908000384600F00DFC0121384600F043FC4FF457
:109090007048C6F80080DFF83C91BB4603E03068BA
:1090A000411E316055D34F464946584600F046FCB4
:1090B0000028F4D000223C21D946584600F0CDFCCF
:1090C000C6F80080DFF810B103E03068411E31605F
:1090D00074D35946484600F0EDFB0028F5D0CB4646
:1090E0004846009900F0C1FCC146C6F80080D84649
:1090F00003E03068411E316060D3364940467F311D
:1091000000F01CFC30B933494046C91C00F016FC85
:109110000028EED00121C346404600F0FBFBC846C4
:10912000C6F80090B9465F4603E03068411E3160E2
:1091300044D34946384600F001FC0028F5D001220E
:109140003C21384600F089FCC6F80080DFF88C80AE
:1091500004E033E03068411E31602FD34146384689
:1091600000F0A8FB0028F5D0DFF87080D14608F1A8
:109170003E0804B3012C03D10021384600F090FBD7
:10918000C6F8009003E03068411E316016D34146B6
:10919000384600F08FFB0028F5D0384600F05AFC26
:1091A0002870012C03D10121384600F0BDFB641E5C
:1091B000E4B26D1CDDE70120BDE8FE8F0848002009
:1091C00000BF012080F3138801F006FA240000207C
:1091D000005400400100001082000700020003005C
:1091E000640000202DE9F047404E81464FF4704066
:1091F00014460D4630603E4F0121384600F050FBCA
:109200004FF4003803E03068401E306065D34146BB
:10921000384600F093FB0028F5D10121384600F0D4
:1092200079FBDFF8D08003E03068411E316054D311
:109230004146384600F082FB0028F5D000223C2150
:10924000384600F00AFCDFF8B08003E03068411EC9
:10925000316042D34146384600F02CFB0028F5D05F
:109260004946384600F001FCDFF88880DFF884903A
:1092700008F17F0809F1030903E03068411E3160FD
:109280002BD34146384600F059FB28B949463846A9
:1092900000F054FB0028F0D0DFF85C8008F10208F1
:1092A000C4B12978384600F0E0FB03E03068411E85
:1092B000316012D34146384600F0FCFA0028F5D060
:1092C000012C03D10121384600F02EFB641EE4B2CC
:1092D0006D1CE5E70120BDE8F0870848002000BFCD
:1092E000012080F3138801F077F9000024000020AA
:1092F00000540040010000108200070064000020BC
:1093000000F062BA2DE9F14FADF51E7D00241E2557
:10931000969497949A949994C82168469894FEF7E5
:109320001EFFC82132A8FEF71AFFC82164A8FEF765
:1093300016FF874EB6F91200FFF7A0F907468846D8
:10934000B6F91200FFF79AF93A464346FFF702F9D9
:10935000FFF7C5F99C90B6F91400FFF78FF907469F
:109360008846B6F91200FFF789F93A464346FFF7F7
:10937000F1F8FFF7B4F99B90B6F91600FFF77EF904
:1093800007468846B6F91200FFF778F943463A4691
:10939000FFF7E0F8FFF7A3F9074600F0DFF887F0E2
:1093A000004BE84600F084FC96A800F0F1F8FFF7C7
:1093B00053FCBDF95A02FFF753F9654EF169FEF708
:1093C0003AFF9B99FEF73DFF0746BDF95802FFF7AC
:1093D00047F9B169FEF72FFF9C99FEF732FF8146EE
:1093E000BDF95C02FFF73CF9316AFEF724FF014644
:1093F0005846FEF726FF06463846FFF75DF9DFF8C8
:1094000054A100225346FFF733F86FF00A073A469B
:10941000FFF70FF9FFF763F948F824004846FFF714
:109420004BF900225346FFF723F83A46FFF701F9BC
:10943000FFF755F90DF1C80949F824003046FFF748
:109440003BF900225346FFF713F83A46FFF7F1F8CD
:10945000FFF745F90DF5C87A4AF82400641CE4B218
:10946000AC429FD300263AE006F1010B0BF0FF045B
:1094700031E0474658F8241058F82600FFF74CF919
:1094800007D257F8260057F8241047F8261047F857
:1094900024004F4659F8241059F82600FFF73CF9EC
:1094A00007D257F8260057F8241047F8261047F837
:1094B000240057465AF824105AF82600FFF72CF9D2
:1094C00007D257F8260057F8241047F8261047F817
:1094D0002400641CE4B2AC42CBD30BF0FF06AE42D6
:1094E000C2D3FE2000EB5500C4B203204E465746BF
:1094F00000EB550513E058F824109A98FEF749FE42
:109500009A9056F824109998FEF743FE999057F8D0
:1095100024109898FEF73DFE641CE4B29890A54292
:10952000E9D80D4C9A982146FEF7BDFE9E9A214639
:1095300010609998FEF7B7FE9E994860214698986A
:10954000FEF7B1FE9E9988600DF51F7DBDE8F08F96
:10955000B8030020004060400000A04008B574201F
:109560008DF80000012269460020FFF73BFE202015
:109570008DF80000012269461046FFF733FE0020F7
:109580008DF80000012269460220FFF72BFE08BD7E
:10959000F8B50546214C224E00E0DCB308213046E8
:1095A000FFF72DFD08B1641EF7D2012269460320A2
:1095B000FFF74EFD9DF800000122040269460420D9
:1095C000FFF746FD9DF8000001220443694607208D
:1095D000FFF73EFD9DF800000122060269460820C3
:1095E000FFF736FD9DF8000001220643694605207D
:1095F000FFF72EFD9DF800000122070269460620B4
:10960000FFF726FD9DF800002C8007436E80AF8099
:109610000120F8BDFFE70020FBE70000FFFF3F004F
:10962000000402402DE9F047354E002588B07078DF
:109630002C46082800D004250422311D3148FEF7AD
:1096400099FD08B1042500E045B1B07830B1284655
:1096500000F034FD002008B0BDE8F08700252F465B
:10966000DFF8A4804FF002094FF4967AFFF776FFF7
:10967000FFF7F2FA05A8FFF78BFF3220FFF70EFB8A
:10968000FFF7EAFA641CB8F80000A4B28DF80000F5
:10969000F0788DF801008DF80470200A8DF80270C2
:1096A0008DF805008DF80390BDF814008DF80800C2
:1096B000010A8DF80640BDF816008DF80710010A62
:1096C0008DF809108DF80A00BDF818008DF80C000F
:1096D000010A8DF80B100D216846FFF7A2FA8DF8EC
:1096E0000D00000A8DF80E00B07818B10F21684601
:1096F00001F0ACFB6D1CADB25545B7D30120AAE714
:10970000EC040020A0BE0008B8030020FEE7000023
:1097100070B5264D264C2946204600F024F918B194
:109720002946204600F0D2F8224D2046294600F076
:109730001AF918B12946204600F0C8F81E4D2046F7
:10974000294600F010F918B12946204600F0BEF86D
:109750001A4D2046294600F006F918B12946204640
:1097600000F0B4F8164D2046294600F0FCF818B178
:109770002946204600F0AAF8124D2046294600F05E
:10978000F2F818B12946204600F0A0F84FF0012564
:109790002946204600F0E7F8002805D02946204653
:1097A000BDE8704000F092B870BD0000008000017C
:1097B00000540040004000010002000100100001C0
:1097C000000800010004000170B501214C0586B0BD
:1097D000204601F0CBF80121022001F0BBF8012165
:1097E000084601F0DBF80121204601F0CBF800210A
:1097F000204601F0C7F8274E042208213046FFF723
:10980000EAFB042209213046FFF7E5FB4FF44070E4
:10981000012500908DF8055002208DF804008DF888
:10982000065000248DF8074069463046FFF79CFB40
:109830008DF8055008208DF8044000908DF8064002
:109840008DF8074069463046FFF78EFB124D2846DB
:1098500000F04AF8ADF80C404BF6FF70ADF80E0082
:10986000ADF810402815ADF812000001ADF8140055
:109870000A48029002A9284600F090F8012211023D
:10988000284600F082F80121284600F022F806B0B0
:1098900070BD00000004024000540040A08601009A
:1098A0000029018802D041F4806101E021F4806147
:1098B00001807047034600209A8A1B8B42EA0342CC
:1098C00022F07F42914300D101207047C943818239
:1098D00070470029018802D041F0010101E021F028
:1098E0000101018070470000094910B588424FF01E
:1098F000010101D14C0501E04FF48004204601F044
:1099000041F82046BDE81040002101F03BB80000BE
:10991000005400400029018802D041F4807101E028
:1099200021F48071018070470029018802D041F440
:10993000007101E021F40071018070470CB502460E
:10994000002000920A0F21F07F41019202D0009A7C
:10995000143202E0009A090C1832009212680A428E
:1099600000D001200CBD10B5034600209A884FF4AA
:10997000E06404EA11449B8A224021F07F410B42BB
:1099800002D0002A00D0012010BD002A828801D018
:109990000A4300E08A438280704700007FB5044696
:1099A00080880D4620F03F06684601F00FF82749F1
:1099B0000298B0FBF1F189B20E43A680228822F012
:1099C00001022280224B2A689A421BD85200B0FB27
:1099D000F2F080B2042800D20420491C2184A08324
:1099E000208840F00100208020884FF6F5310840A3
:1099F000A9886A89114301432180A88929890843DC
:109A000020817FBDEB88A3F53F46FF3E0BD002EBE4
:109A1000C20303EB0212B0FBF2F080B240F48040CC
:109A2000020506D007E002EB4202B0FBF2F080B282
:109A3000F6E740F001004FF4967251434FF47A720A
:109A4000B1FBF2F140F40040C7E7000040420F00D4
:109A5000A0860100008AC0B2704712B141F0010136
:109A600001E001F0FE01018270470182704710B5EC
:109A70004FF4C06000F096FDFFF748FA00F064F87C
:109A8000BDE810404FF4165001F0FAB9F8B50222C3
:109A900069460020FFF71EF99DF800000526012504
:109AA000274C122828D09DF80100342824D080218A
:109AB0000020FFF7FDF8258065800020A080C4F815
:109AC0000600C4F80A00C4F80E006582A582E5828B
:109AD000A061E0612062A684322221461046FFF791
:109AE0002DF912208DF8000034208DF8010002229B
:109AF00069460020FFF722F9322211491046FFF78C
:109B0000E9F8208810B12088F72800D925806088DE
:109B100010B16088042800D96580A08C10B1A08C99
:109B20000A2800D9A684074840F24C41018040F23F
:109B300002414180A18CC184FFF76CFAF8BD00009E
:109B4000B80300201C04002070B50E484FF47A7151
:109B50004FF0FF350068B0FBF1F1491EB1F1807F95
:109B60000AD24FF0E02461610F21284600F024FD65
:109B70000020A061072020612846BDE87040002138
:109B800000F01ABD4400002070B5484C20882188A0
:109B9000000204F1680540EA112025F8020B6088F4
:109BA0006188000240EA1120288060686168000630
:109BB00001F47F4140EA0120616801F47F0140EA3D
:109BC0001120616840EA1160C5F8020020892189EE
:109BD000000240EA1120E880D4F80A0001F096FE65
:109BE000A860D4F80E0001F091FEE860D4F81200ED
:109BF00001F08CFE2861D4F8160001F087FE686140
:109C0000D4F81A0001F082FEA861D4F81E0001F019
:109C10007DFEE861D4F8220001F078FE2862E08C35
:109C2000E18C000240EA1120A8840020AD1E04EB64
:109C300040010A8D098D120242EA112105EB400212
:109C40001185401CC0B20828F1D3A06B01F05EFE64
:109C5000A863E06B01F05AFEE863206C01F056FE49
:109C60002864606C01F052FE6864A06C01F04EFE46
:109C7000A864E06C01F04AFEE864206D01F046FE45
:109C80002865606D01F042FE6865A06D01F03EFE42
:109C9000A865E06D01F03AFEE865206E01F036FE41
:109CA0002866606E01F032FE686670BD1C040020FC
:109CB0002DE9F04110213548FFF7A8F9344D2878F7
:109CC000002860D0002405E001F042F929198870CD
:109CD000641CE4B26878A042F6D86878801EC1B2ED
:109CE000A81CFEF79EFF014668782A5C6B7828481E
:109CF000401C1B5C002642EA03228A4208D06A7894
:109D00002946105CFF283AD14878085CFF2836D1F4
:109D100020480660A878204909881F4C0927643428
:109D20008842284626D1C07810281BD006DC03289C
:109D30000CD004280DD0062804D10EE0402815D000
:109D4000412819D0012000F0B9F918E000F040F9DD
:109D500015E000F087F8022002E000F02DFA032061
:109D600020810CE000F0ACFA0420F9E7FFF75AFC80
:109D70000520F5E7807810B900F0C2F9278101F0DD
:109D8000DBF86E702E70BDE8F0810000000002402C
:109D9000EC04002008000020B803002070B52F4C10
:109DA00020882188000204F1320540EA112025F8BC
:109DB000020B60886188000240EA11202880A08898
:109DC000A188000240EA11206880D4F8060001F062
:109DD0009DFD6860D4F80A0001F098FDA860D4F8F1
:109DE0000E0001F093FDE860608A618AC0F30720ED
:109DF00040EA01202882A08AA18AC0F3072040EA15
:109E000001206882E08AE18AC0F3072040EA01204D
:109E1000A882A06901F07AFDC5F81600E06901F09A
:109E200075FDC5F81A00206A01F070FDC5F81E0026
:109E3000A08CA18C000240EA11206884D4F826008E
:109E400001F064FD6862D4F82A0001F05FFDA862A9
:109E5000D4F82E0001F05AFDE86270BDB80300206E
:109E6000FEE70000F0B5594EADB0002071793279AF
:109E700041EA0224F179B279A6F59A7741EA022201
:109E8000A118491E4FF6FF73D7F806C089B203EA3E
:109E90004205A6F1D003C3F844C0D7F80AC0C3F8FE
:109EA00048C0D7F80EC0C3F84CC07378082B00D058
:109EB000042002B90220032C25D0062C23D0082C24
:109EC00021D00A2C1FD00C2C1DD00E2C1BD0102CF6
:109ED00019D0122C17D01D2C15D01F2C13D0212CCB
:109EE00011D0232C0FD0252C0DD0272C0BD0292CB2
:109EF00009D02B2C07D02D2C05D02F2C03D0312CA2
:109F000001D0332C00D10220022925D0052923D0ED
:109F1000072921D009291FD00B291DD00D291BD0BD
:109F20000F2919D0112917D01C2915D01E2913D09B
:109F3000202911D022290FD024290DD026290BD079
:109F4000282909D02A2907D02C2905D02E2903D069
:109F5000302901D0322900D10220332900DD02202E
:109F6000332C00DD0220F179B27941EA0221342953
:109F700001D9032000E020B100F0A0F800202DB0AE
:109F8000F0BDFFF701FE38888DF80000F0788DF8FD
:109F900001000E488DF80250683800EB44016C4611
:109FA0002A46E01CFEF7C2F8E81CC1B26846FEF77C
:109FB00038FE6119C870000A0871B07820B16D1DB3
:109FC000A9B2684600F042FF0120D8E7EC04002067
:109FD00070B5384EAEB000207179327941EA022472
:109FE000F179B2794FF6FF7341EA0222A11803EA30
:109FF0004205491E737889B2082B00D0042002B9AB
:10A000000220042C0FD0062C0DD0082C0BD00D2CC8
:10A0100009D00F2C07D0112C05D0142C03D0162CEE
:10A0200001D0182C00D1022003290FD005290DD012
:10A0300007290BD00C2909D00E2907D0102905D0EB
:10A04000132903D0152901D0172900D1022018297E
:10A0500000DD0220182C01DD022000E020B100F01C
:10A060002DF800202EB070BDFFF798FE1248008832
:10A070008DF80000F0788DF801000F488DF802503F
:10A08000323000EB44016C462A46E01CFEF74EF8E5
:10A09000E81CC1B26846FEF7C4FD6119C870000A29
:10A0A0000871B07820B16D1DA9B2684600F0CEFEEF
:10A0B0000120D7E7EC040020B80300201CB50028DD
:10A0C00018D00D4909888DF800100C49C97841F065
:10A0D00080018DF801108DF8020003216846FEF71B
:10A0E000A0FD8DF80300000A8DF8040005216846E4
:10A0F00000F0ACFE1CBD0000B8030020EC04002002
:10A100003EB52B4D00246878082800D00424042292
:10A11000291D2848FEF72EF808B1042400E034B1C8
:10A12000A87820B12046FFF7C9FF00203EBD204897
:10A13000D038016DA0F16404C4F82610416DC4F854
:10A140002A10816DC4F82E10816BC4F80610C16B03
:10A15000C4F80A10006CC4F80E000C22A11D3820AF
:10A16000FEF7ECFD0C2204F126015820FEF7E6FD77
:10A1700020888DF80000E8788DF8010000208DF827
:10A1800002008DF804008DF803008DF8050006210B
:10A190006846FEF746FD8DF80600000A8DF80700B8
:10A1A000A87818B10821684600F050FE01203EBD95
:10A1B000EC040020A0BE00087FB53F4E002470795B
:10A1C000317940EA0120F179B27941EA0221ADF812
:10A1D0000C107278082A00D0042460B101280AD03B
:10A1E000022808D0092806D00A2804D00B2802D05B
:10A1F000122800D00224314D092829D005DC58B19D
:10A2000001281BD002280AD11DE00A2825D00B28DE
:10A2100028D0122803D12AE009B1F72901D9042452
:10A2200006E02980022203A93220FEF787FD3CB315
:10A230002046FFF743FF002004B070BD6980022272
:10A2400003A93420F1E7A980022203A93620ECE714
:10A250006982022203A94420E7E7A982022203A916
:10A260004620E2E7E982022203A94820DDE7A9842B
:10A27000A88C12496431C884022203A95620D4E76D
:10A2800028888DF80000F0788DF801000A48062132
:10A290003438806BCDF802006846FEF7C2FC8DF8BA
:10A2A0000600000A8DF80700B07818B1082168464A
:10A2B00000F0CCFD0120BFE7EC040020B803002033
:10A2C0002DE9FE43DFF86C82002098F8052098F80D
:10A2D000043042EA032498F8073098F8062098F8EA
:10A2E000087053EA022204EB0201A1F101018DB2D0
:10A2F00000D007B90220042C0FD0062C0DD0082C5A
:10A300000BD00D2C09D00F2C07D0112C05D0142CFC
:10A3100003D0162C01D0182C00D10220032D0FD011
:10A32000052D0DD0072D0BD00C2D09D00E2D07D0EB
:10A33000102D05D0132D03D0152D01D0172D00D1D0
:10A340000220182D00DD0220182C01DD0220B9E0CA
:10A3500000287DD17849322201F13200FDF7E6FE76
:10A36000754E3A46323606EB440006F20B11FDF705
:10A37000DDFEECB3012C06D82DB170887188000287
:10A3800040EA11207080022C07D8022D05D3B08836
:10A39000B188000240EA1120B080032C07D8042DB8
:10A3A00005D3D6F8060001F0B1FAC6F80600052C70
:10A3B00007D8062D05D3D6F80A0001F0A7FAC6F88B
:10A3C0000A00072C07D8082D05D3D6F80E0001F097
:10A3D0009DFAC6F80E00092C08D8092D06D3708AFC
:10A3E000718AC0F3072040EA012070820A2C00E045
:10A3F00039E008D80A2D06D3B08AB18AC0F3072005
:10A4000040EA0120B0820B2C08D80B2D06D3F08A2D
:10A41000F18AC0F3072040EA0120F0820C2C05D815
:10A420000D2D03D3B06901F071FAB0610E2C05D87F
:10A430000F2D03D3F06901F069FAF061102C05D8F3
:10A44000112D03D3306A01F061FA3062122C00E062
:10A4500038E00FD8122D2BD3B08CB18C000240EA1B
:10A460001120B08408E030883188000240EA1120D1
:10A47000308081E7142C07D8132D05D3D6F8260099
:10A4800001F044FAC6F82600162C07D8152D05D37E
:10A49000D6F82A0001F03AFAC6F82A00182C07D894
:10A4A000172D05D3D6F82E0001F030FAC6F82E008D
:10A4B0003088214F10B13088F72808D998F8021059
:10A4C0000320C1B1FFF7FAFD0020BDE8FE831A4961
:10A4D000322232311848FDF729FE17493222323133
:10A4E0001046FEF72BFC122C05D8122D03D3B88C86
:10A4F00011496431C88438888DF8000098F8030049
:10A5000044468DF801000B4806213438806BCDF8A5
:10A5100002006846FEF785FB8DF80600000A8DF8FC
:10A520000700A07818B10821684600F08FFC0120D0
:10A53000CBE70000EC040020B803002070470000C7
:10A5400030B50F23C27801780125FAB1144A126898
:10A5500001F1E02102F4E062C2F5E062C2F30722F9
:10A56000C2F10404D3404278A24084781C401443D2
:10A57000220181F80024007800F01F018D4040097D
:10A58000800000F1E020C0F8005130BD01F01F0054
:10A5900085404809800000F1E020C0F8805130BDBE
:10A5A0000CED00E0024908430249086070470000D2
:10A5B0000000FA050CED00E00907090E002806DA94
:10A5C00000F00F0000F1E02080F8141D704700F14A
:10A5D000E02080F800147047BFF34F8F04480168F3
:10A5E000044A01F4E06111430160BFF34F8FFEE7BD
:10A5F0000CED00E00400FA05704700002DE9F04F73
:10A6000000248FB0A1460794089409940A940694F4
:10A6100004940594A04627462546142601940294E6
:10A620000394FEF719FBFFF743FB07A8FEF7B6F903
:10A6300048460799FDF7ADFD814640460899FDF76C
:10A64000A8FD804638460999FDF7A3FD0746284630
:10A650000A99FDF79EFD641CE4B20546B442E0D3BE
:10A660003046FEF706F80446214687F00040FDF725
:10A670001AFEB24E3060214689F00040FDF713FE0D
:10A680007060214688F00040FDF70DFEB060214665
:10A690002846FDF708FEF0603168DFF8A492C8464E
:10A6A000C9F80A107168C9F80E10B168C9F812101B
:10A6B000F168C9F81610B068FDF7FEFF04460D46B4
:10A6C0007068FDF7F9FF22462B4601F065FA044653
:10A6D0000D4601F021FB07468A46B068FDF7ECFF06
:10A6E0003A465346FDF7C4FE82468B46204629462D
:10A6F00001F086FB074600917068FDF7DDFF3A46E2
:10A70000009BFDF7B5FE52465B46FDF70AFE074685
:10A7100030688A4680F00040FDF7CEFF53463A4647
:10A7200001F03AFADFF81CA206460F460022534613
:10A73000FDF79EFEDFF810B2844B5A46FDF70AFF84
:10A74000FDF7CDFFC8F838000022534620462946C1
:10A75000FDF78EFE5A467D4BFDF7FCFEFDF7BFFF71
:10A76000C8F83C00A9F16400808800287ED004A8C5
:10A77000FEF7C8FD0698DFF8C48180F00041C8F8F4
:10A780001C100599C8F820100499C8F82410D8F8AE
:10A790001C10C9F81A10D8F82010C9F81E10D8F8E3
:10A7A0002410C9F822103046394601F029FB0B91DC
:10A7B00000902046294601F0AFFA83468A46D9F830
:10A7C0002200FDF779FF5A465346FDF751FE0B9BD9
:10A7D000009AFDF74DFECDE90C012046294601F017
:10A7E0000FFB0B9100903046394601F009FB824681
:10A7F0008B46D9F81E00FDF75FFF52465B46FDF71A
:10A8000037FE0B9B009AFDF733FE82468B4630469F
:10A81000394601F081FA06460F46D9F81A00FDF7CD
:10A820004BFF32463B46FDF723FE52465B46FDF7A3
:10A8300078FDDDE90C23FDF774FDFDF750FF82463E
:10A840002046294601F0DCFA06460F46D9F82200D8
:10A85000FDF732FF32463B46FDF70AFE06460F463D
:10A860002046294601F058FA044600E03AE0D9F8BB
:10A870001E000D4680F00040FDF71EFF22462B46CD
:10A88000FDF7F6FD32463B46FDF74BFDFDF727FF92
:10A8900006465046FDF710FF04460D463046FDF7CC
:10A8A0000BFF22462B4601F077F90022254BFDF7DE
:10A8B000DFFD254A254BFDF74DFEFDF710FFC8F8DB
:10A8C0002800D8F8280010F1FF4F06D3D8F8280048
:10A8D00044461F49FDF75DFCA062D8F82810C9F86E
:10A8E000401002E00020C9F840004C46B9F82600AC
:10A8F000FDF7BFFE01A90091236CE26BA16BFEF78F
:10A900003BFA01982065029860650398A0650C48A1
:10A910006438D0F82610E165D0F82A102166D0F806
:10A920002E10616650F8061F61644168A16480685A
:10A93000E0640FB00120BDE8F08F00006C00002043
:10A940001C040020008066404AD8124DFB210940BB
:10A950000000B443044A0029116801D0014300E01B
:10A9600081431160704700001C380240044A0029EE
:10A97000116801D0014300E081431160704700007D
:10A9800024380240044A0029116801D0014300E044
:10A99000814311607047000018380240044A0029C2
:10A9A000116801D0014300E081431160704700004D
:10A9B00020380240044A0029116801D0014300E018
:10A9C00081431160704700001438024030B5264BB7
:10A9D0001968A3F1040211F00C014FF4004405D0F2
:10A9E00004290AD008290AD00C290BD01168C1F318
:10A9F0004231491C8C4004601BE01C4918E04FF4B4
:10AA0000E10115E019681A6801F47011184C02F49C
:10AA1000400204EB91410978012404EB92521C6836
:10AA200014F4803F1ED04FF4E1046143B1FBF2F116
:10AA3000016019680F2202EA11110D4A0932545CB3
:10AA40000168E14041601C68072505EA1424145D93
:10AA500021FA04F484601B6805EAD323D25CD14058
:10AA6000C16030BD014CE0E7083802400024F4002A
:10AA70002A0000202DE9F041012188B08803FFF76A
:10AA800075FF01210320FFF765FF374F05220D21D8
:10AA90003846FEF7A0FA05220E213846FEF79BFA4B
:10AAA00005220F213846FEF796FA02258DF804504C
:10AAB00000244FF460408DF8064000908DF8075058
:10AAC00003268DF8056069463846FEF74DFA0120E9
:10AAD0008DF804008DF806408DF80700DFF88C80B3
:10AAE000370200978DF8056069464046FEF73CFA4C
:10AAF00039464046FEF78CFA8DF80440E8028DF89E
:10AB0000056000908DF806408DF807506946404674
:10AB1000FEF72AFA164D0021284600F049F828468B
:10AB200000F050F8ADF808404FF48270ADF80A001C
:10AB3000ADF810406815ADF812001820ADF81400FB
:10AB40000720ADF80C40ADF81800ADF80E40ADF898
:10AB5000164002A9284600F06AF80121284600F0B4
:10AB600027F808B0BDE8F081000402400000024070
:10AB700000380040FF2000F001B8000070B50B4C19
:10AB800005460221204600F047F80028F9D0294662
:10AB9000204600F04AF80121204600F03DF8002848
:10ABA000F9D0204600F03FF8C0B270BD0038004038
:10ABB0000029018802D041F0400101E021F040016C
:10ABC00001807047114910B588420AD184140121CF
:10ABD0002046FFF7EFFE2046BDE810400021FFF7BA
:10ABE000E9BE0B49884202D10121041404E009495D
:10ABF00088420AD10121C4132046FFF7C3FE204634
:10AC0000BDE810400021FFF7BDBE10BD003001407F
:10AC100000380040003C00400246002012890A42F1
:10AC200000D001207047808970478181704730B51E
:10AC300002884C8802F441530A88CD8822438C88CC
:10AC40002C4322430C8922434C8922438C89224382
:10AC5000CC8922431A430280828B22F400628283D1
:10AC6000098A018230BD70470CB500222C49009240
:10AC70000192086840F4803008604FF4A0430868EF
:10AC800000F4003001900098401C0090019810B929
:10AC900000989842F3D1086880033FD501200190C5
:10ACA0002048026842F004020260026842F0020298
:10ACB0000260026842F00102026019482430026812
:10ACC00042F080520260C214174802604268D20605
:10ACD000FCD413480830026802600268026002680F
:10ACE0000260026822F47D020260026842F41102EE
:10ACF00002600A6842F080720A600A689201FCD51C
:10AD0000016821F003010160016841F00301016065
:10AD10000168C1F381010329FAD10CBD01920CBD78
:10AD200000380240003C02400070004030B5264828
:10AD3000016811B10168491E016024480168491C7D
:10AD40000160234A1168491C116004682023002116
:10AD5000A4F5E0659E3D2BD00468B4F5FA6F02D3EC
:10AD600001601C48038013680120B3F57A7F18D373
:10AD70001160194A53685B1C5360184A13685B1CC6
:10AD80001360174B1C68641C1C601268B2F5647F6A
:10AD900001D9144A10701A68052A02D31960124AA0
:10ADA0001070124A137833B11078401E107030BD05
:10ADB0000848801CD6E70E4A537813B1137803B9BC
:10ADC00010700C48017030BD04000020000000200D
:10ADD00014000020180402401C0400200800002079
:10ADE000100000200C0000200D00002018000020A2
:10ADF000EC04002029000020104810B5016841F43F
:10AE0000807101600D4908310A680D4B1A400A60D3
:10AE100002680C4B1A400260026822F48022026031
:10AE2000086820F47D000860091D00200860FFF715
:10AE30001BFF05494FF00060086010BD003802405C
:10AE40000CC0FF88FEFFFEEE08ED00E070B50A4C76
:10AE50000D46064610212046FEF7DAF800BF2A46C6
:10AE60003146064800F016FA00BF10212046BDE822
:10AE70007040FEF7CBB800000000024000380140EF
:10AE8000F0B587B0074625208DF8180001258DF80C
:10AE900019508DF81A508DF81B5006A8FFF750FB7B
:10AEA00001218803FFF77AFD214E07220621304653
:10AEB000FEF791F8072211463046FEF78CF8402045
:10AEC000009002208DF8040003208DF80500002476
:10AED0008DF806408DF8075069463046FEF744F875
:10AEE0008020009069463046FEF73EF8ADF80C40F1
:10AEF000ADF80E40ADF81040ADF814400C200D4CEC
:10AF0000ADF81200029702A9204600F059F901227B
:10AF100040F22551204600F03AF94021204600F049
:10AF2000FDF80121204600F002F907B0F0BD000055
:10AF300000040240003801400348002141600160E4
:10AF40000248C17001707047A00000201900002065
:10AF5000054803C8814202D14FF6FF7070474FF495
:10AF60007A7000F003B80000A00000200949D1E980
:10AF7000003203E0401E0004000C07D09A42F9D0D2
:10AF8000D0B20844521C4A60007A70474FF6FF70F6
:10AF900070470000A00000202DE9F0411C4D40F258
:10AFA00025561A4C3146284600F0D2F800282AD0FF
:10AFB000184801220270184802702F46284600F0F7
:10AFC0007AF9C5B23146384600F0ABF8134B187821
:10AFD000002818D1D4E900010A1A12F0FF0F104A14
:10AFE00002D01678002E0ED005261670411AFF29C1
:10AFF00005D8C0B2204405722068401C206020782B
:10B000002179401A5870BDE8F0810000A0000020AE
:10B01000003801402800002029000020EC04002016
:10B02000180000202DE9F041194E40F22557174C29
:10B030003946304600F08CF8002825D0304600F024
:10B040003AF9C5B23946304600F06BF8114800783D
:10B05000002819D1D4E900010A1A12F0FF0F0E4A94
:10B0600002D01378002B0FD003231370411AFF294D
:10B0700005D8C0B2204405722068401C20602078AA
:10B080002179401A05490870BDE8F081A801002027
:10B09000004400401C0000201F0000201A00002077
:10B0A0002DE9F041194E40F22557174C39463046EC
:10B0B00000F04EF8002825D0304600F0FCF8C5B26C
:10B0C0003946304600F02DF811480078002819D193
:10B0D000D4E900010A1A12F0FF0F0E4A02D01378C9
:10B0E000002B0FD003231370411AFF2905D8C0B2DB
:10B0F000204405722068401C206020782179401A85
:10B1000005490870BDE8F081B00200200048004009
:10B110001E000020200000201B000020C9430180E9
:10B1200070470A0A01219140C943018070470029F4
:10B13000818902D041F4005101E021F40051818164
:10B1400070470246002012880A4200D00120704752
:10B1500070B501F01F0501260024C1F3421306FA61
:10B1600005F2012B0FD0022B0FD0838A4FEA112159
:10B170000088134206FA01F600EA060001D000B189
:10B180000124204670BD8389F0E7038AEEE710B5FD
:10B19000C1F3421301F01F040121A140012B07D08C
:10B1A000022B07D01430002A026805D00A4304E0BD
:10B1B0000C30F8E71030F6E78A43026010BD00005B
:10B1C0007FB50446008A0D4620F44051E8880843C4
:10B1D0002082A18941F20C608143A8882A8910430A
:10B1E0006A890A431043A081A08A20F44071A8898B
:10B1F0000843A0826846FFF7E9FB1948844201D161
:10B20000039800E00298A189090400EBC00101EB5A
:10B210000010296801D5490000E08900B0FBF1F079
:10B220006422B0FBF2F109010B096FF018056B43C2
:10B2300000EB8300A3891D044FF0320306D503EB16
:10B24000C000B0FBF2F000F0070005E003EB0010D7
:10B25000B0FBF2F000F00F00084320817FBD00003A
:10B260000038014070B50D46064600244021FFF726
:10B2700068FF2946304600F022F84FF4A02540210F
:10B280003046FFF75EFF002803D12046641CA84229
:10B29000F5D370BD2DE9F04116460D460746002452
:10B2A00005E015F8011B3846FFF7DCFF641CB442CB
:10B2B000F7D3BDE8F0818088C0F308007047C1F380
:10B2C000080181807047FEE7490050EAC12018BF9D
:10B2D00004204A0D18BF40F0010040F2FF72B2EBAB
:10B2E000515F08BF40F00200012808BF05207047E9
:10B2F0002DE9F74F144694B00021C4E902111599C5
:10B30000079121F00045C9498D4206DC1599C4E931
:10B31000000117B00020BDE8F08FC549DFF814A385
:10B32000A9423CDD0799C44E0029C44FC44A15996F
:10B33000534619DDFDF796F8554506D0C14AC24B74
:10B34000FDF790F8C4E900010AE04FF0D352BE4B7C
:10B35000FDF788F832463B46FDF784F8C4E9000162
:10B3600017B00120BDE8F08FFCF7DBFF554506D094
:10B37000B44AB54BFCF7D5FFC4E900010AE04FF031
:10B38000D352B14BFCF7CDFF32463B46FCF7C9FF29
:10B39000C4E9000117B04FF0FF30BDE8F08FAB49B2
:10B3A000A942159978DB21F0004183468846A84AD6
:10B3B000A84BFDF75DF80022A74BFCF7B2FFFDF7A5
:10B3C0008DFA0990FDF75AF906460F469C4A5346F6
:10B3D000FDF74EF843465A46FDF747F880468A4641
:10B3E000984A994B30463946FDF742F82A0D012517
:10B3F0000B9242465346FDF738F8032DC4E900018D
:10B4000039D00B98C1F30A51401A05EB4511113997
:10B41000814230DA9148C346784400EB0510CDF8FC
:10B420000CA00C90D0E9002330463946FDF720F8F7
:10B4300002460B460491069058460399FDF712F810
:10B4400080468A4602460B4658460399FDF70AF89D
:10B45000049B069AFDF706F883460C98039139463B
:10B46000D0E902233046FDF703F85A46039BFCF768
:10B47000F9FF6D1CBDE707980028A2BF099817B017
:10B48000BDE8F08F616881F000416160099817B0F4
:10B490004042BDE8F08FFFE784461598C1F31301E1
:10B4A000C0F30A50A0F2F5304FEA601800F01F0612
:10B4B000C6F12000139000200690079041F4801EF2
:10B4C00005206D4676B1664A08EB00017A4452F8D1
:10B4D000213002EB8101B3404A68139922FA01F14D
:10B4E000194305E05F4908EB0002794451F8221046
:10B4F000A1FB0E27A1FB0C131A449A4234BF01236F
:10B50000002303EB070A05EB8003D3E901B70F44DF
:10B510008F4234BF0121002193448B4411B19345E4
:10B5200002D903E0934501D2012100E00021C3E9E3
:10B5300001B7514445F82010011EA0F10100C1DC03
:10B540000298059F00F10050800F12900298DDE9EB
:10B5500003568000FDF792F8834628460D91FDF7CB
:10B560009EF86FF01D02FDF764F8CDE90E0130463C
:10B57000FDF795F86FF03D02FDF75BF880468A46CF
:10B580003846FDF78CF86FF05D02FDF752F807467C
:10B59000424653461191FCF7C4FEDDE90E23FCF749
:10B5A000C0FE5A460D9BFCF7BCFE00250E465A46CF
:10B5B00028460D9BFCF756FFDDE90E23FCF752FFF2
:10B5C00042465346FCF74EFF3A46119BFCF74DFFAF
:10B5D000DFF898A0244A5346FCF74AFF07468846FE
:10B5E000234A244B31462846FCF742FF3A4643465D
:10B5F000FCF797FE074688464FF0A842534631466F
:10B600002846FCF735FF3A464346FCF78AFE159A72
:10B6100012F0004F04D0129A81F00041524212926F
:10B62000C4E90001129817B0BDE8F08FFB21E93F93
:10B630007CD90240FB21F93F7370032E8A19A33B8A
:10B64000000040543163621A61B4D03DFB2139419E
:10B6500083C8C96D305FE43F0000E03F5C0B000031
:10B66000D80A0000BA0A0000182D4454FB21F93D05
:10B670003326A611460B113C2DE9FF4D21F0004861
:10B6800007460C46B8F1795F08DAFDF727F900287C
:10B6900001BF0020324904B0BDE8F08D3A46234690
:10B6A00010461946FCF7E4FE054602462D480E46B4
:10B6B0000B460621784400F05DF82A463346FCF735
:10B6C000D7FEDDE9022382468B4638462146FCF749
:10B6D000CFFE04460F4652465B4628463146FCF7ED
:10B6E000C7FE22463B46FCF7BDFE07468A464FF0A2
:10B6F000FF3228463146FCF79CFF1B4A90450ADA88
:10B700003A465346FCF7AEFE04B00022BDE8F04DC9
:10B71000134BFCF7AABE154A4245A8BFA8F5001571
:10B720004FF00004B8BF124D22462B46FCF79AFE9C
:10B730000646884622462B4600200949FCF792FE21
:10B7400004460D463A46534630464146FCF78AFECB
:10B7500004B022462B46BDE8F04DFCF786BE000043
:10B760000000F03F880800003333D33F0000E93F7A
:10B770000000D23F2DE9F0414F1E00EBC701044607
:10B78000D1E9000115461E4637F006020DD02A46C3
:10B790003346FCF76DFE7F1E04EBC703D3E900239D
:10B7A000FCF7BFFD37F00602F1D1022F25D0042FA0
:10B7B00013D0062F18BFBDE8F0812A463346FCF7A8
:10B7C00057FED4E90A23FCF7ACFD2A463346FCF7C2
:10B7D0004FFED4E90823FCF7A4FD2A463346FCF7C4
:10B7E00047FED4E90623FCF79CFD2A463346FCF7C6
:10B7F0003FFED4E90423FCF794FD2A463346FCF7C8
:10B8000037FED4E90223FCF78CFD2A463346FCF7C9
:10B810002FFED4E90023BDE8F041FCF782BD000013
:10B820002DE9FF4D054621F0004084B00C46B0F1F3
:10B83000795F0BDA2846FFF747FD042808BF00F0C0
:10B840007DF8284608B02146BDE8F08D2A460B4613
:10B850001046FCF70DFE06460F462A462346FCF727
:10B8600007FE804626488A4632463B4605217844F4
:10B87000FFF780FF83461098029160B3214A224B64
:10B8800040465146FCF7F4FDCDE900015A464046DA
:10B890005146029BFCF7ECFD82468846DDE9060135
:10B8A0004FF0FF32FCF7C5FE52464346FCF7DAFD87
:10B8B00032463B46FCF7DCFDDDE90623FCF7D2FD12
:10B8C000DDE90023FCF7CEFD08B02A462346BDE89B
:10B8D000F04DFCF7CABD0B465A4630463946FCF7D8
:10B8E000C7FD084A084BFCF71CFD42465346FCF7CF
:10B8F000BFFD08B02A462346BDE8F04DFCF711BD58
:10B90000CE070000495555555555C5BF020E62F387
:10B910000701020C62F30F21020A62F3174160F380
:10B920001F61084670470122FCF783BEFCF7F9BC93
:10B930000022134610461146FCF70CBE024A0020B6
:10B940001107FCF776BE000001FDFFFF02E008C80A
:10B95000121F08C1002AFAD170477047002001E089
:10B9600001C1121F002AFBD1704700000149086085
:10B9700070470000680000202DE9F84F04460D468E
:10B9800021F0004000917349814211DC72498842E4
:10B9900001DC06D12CB120462946BDE8F84FFFF75F
:10B9A000C2BF6E48002DCCBF6D496E49BDE8F88F0F
:10B9B0006D49814211DD6D498142D8BF4FF0FF369C
:10B9C0006DDD20462946FFF77FFC042808BFFFF7FE
:10B9D000B5FF20462946BDE8F88F6549654F25F03B
:10B9E0000045814233DD6449814219DD002632463B
:10B9F0004FF0804320462946FCF793FC80468A4658
:10BA0000012220462946FCF714FE00223B46FCF7A3
:10BA100029FD42465346FCF79DFD04460D463EE097
:10BA200001260022BA463B4620462946FCF779FC0F
:10BA300080460F460022534620462946FCF712FD59
:10BA400042463B46FCF786FD04460D4627E04B493F
:10BA500081421BDDDFF828A1022600225346204642
:10BA60002946FCF705FD00223B46FCF75AFC8046C0
:10BA70000F460022534620462946FCF7F3FC424677
:10BA80003B46FCF767FD04460D4608E003262246C8
:10BA90002B4600203B49FCF75DFD04460D4622463F
:10BAA0002B4610461946FCF7E3FC8B4682460246BD
:10BAB0000B46FCF7DDFC07460246334888460B463A
:10BAC00006217844FFF756FE52465B46FCF7D0FC51
:10BAD00082462E488B463A46434605217844FFF776
:10BAE00049FE3A464346FCF7C3FC02460B46002E8D
:10BAF000504659460CDAFCF714FC22462B46FCF75C
:10BB0000B7FC01B022462B46BDE8F04FFCF7ADBCB8
:10BB1000FCF707FC22462B46FCF7AAFC1C4A7A4499
:10BB200002EBC603D3E90023FCF79CFC22462B461C
:10BB3000FCF798FC174A7A4402EBC603D3E90023CA
:10BB4000FCF793FC009A002AB8BF81F00041BDE8E1
:10BB5000F88F0000000010440000F07F182D4454BE
:10BB6000FB21F93FFB21F9BF0000DC3F0000203E34
:10BB70000000F33F0000F03F0000E63F008003407C
:10BB80000000F83F0000F0BF4A0400000804000075
:10BB9000A60300006E0300002DE9F04D9446CCF1A1
:10BBA000000423F000464CEA0404524F46EAD474E1
:10BBB0009A46884621F00042BC4206D8454240EAF7
:10BBC000050442EAD474BC4204D9BDE8F04D624693
:10BBD000FFF7ACBEAAF14055A5F17F6555EA0C040C
:10BBE0000BD0022404EAAA74434DDFF810E144EAC2
:10BBF000D87452EA000B04D00CE0BDE8F04DFFF71A
:10BC0000BBBE002C14BF012CBDE8F08D022C30D03F
:10BC1000032C32D056EA0C0B0AD0BE4220D1BA42D5
:10BC200009D126F0804622F080423346114617E0C3
:10BC300000291ADB25E0DFF8C8B0FB44002C04BF64
:10BC4000DBE90001BDE8F08D012C02BFDBE900015A
:10BC500081F00041BDE8F08D022C0AD0032C0CD0FD
:10BC6000BA4212D1B8F1000F0BDA23482549BDE8DA
:10BC7000F08D28462449BDE8F08D28467146BDE880
:10BC8000F08D1D482149BDE8F08D921B12153C2A0C
:10BC9000C4BF19481D490EDCBAF1000FBEBF12F136
:10BCA0003C0F0020014606DB6246FCF753FC21F006
:10BCB0000041FFF761FE002C08BFBDE8F08D012CAC
:10BCC00004BF81F00041BDE8F08D114A114B022CF8
:10BCD00007D0FCF7C7FB2A46BDE8F04D0A4BFCF73E
:10BCE000C1BBFCF7BFFB2A46BDE8F04D064BFCF795
:10BCF000BCBB00000000F07F182D4454FB2109C09C
:10BD000032030000FB21F9BFFB210940FB21F93F71
:10BD1000075C143326A6A13C00B5244B21F0004259
:10BD200087B09A42DCBF0022134629DD204B9A429D
:10BD300008D140B94FF00100FFF718FEFFF7F8FDFA
:10BD400007B000BD03DBFFF7EEFD07B000BD02AAA0
:10BD5000FFF7CEFA10F0030104BF0DF1080C9CE8C8
:10BD60000F000DD0012001290ED0022914D00DF1B1
:10BD7000080C00909CE80F00FFF752FD07B000BDD3
:10BD8000FFF77AFC07B000BD0DF1080C00909CE8AD
:10BD90000F00FFF745FD05E00DF1080C9CE80F00D2
:10BDA000FFF76AFC07B081F0004100BDFB21E93FCD
:10BDB0000000F07F10490F480860FDF758FEFDF7BE
:10BDC00065FEFCF749FF6420FCF768FFFDF798FA71
:10BDD000FCF742FFFCF7A1FDFCF73EFF10210748EE
:10BDE000FDF714F90A20FCF759FFFEF707FCFCF7F2
:10BDF00033FFFAE70080000808ED00E00000024091
:10BE000000B5254B21F0004287B09A4203DC0022A6
:10BE1000134600922BE0214B9A4208D140B94FF0D3
:10BE20000100FFF7A3FDFFF783FD07B000BD03DBB3
:10BE3000FFF779FD07B000BD02AAFFF759FA10F02D
:10BE400003014FF001000DD0012914D002291AD0AE
:10BE50000DF1080C9CE80F00FFF70EFC07B081F015
:10BE6000004100BD0DF1080C00909CE80F00FFF7A9
:10BE7000D7FC07B000BD0DF1080C9CE80F00FFF7E0
:10BE8000FBFB07B000BD0DF1080C00909CE80F0013
:10BE9000FFF7C6FCE2E70000FB21E93F0000F07F6E
:10BEA000446688AA000000004FBB610567ACDD3F17
:10BEB000182D4454FB21E93F9BF681D20B73EF3FD1
:10BEC000182D4454FB21F93FE2652F227F2B7A3C49
:10BED000075C143326A6813CBDCBF07A8807703C02
:10BEE000075C143326A6913CC4EB98999999C9BF75
:10BEF000711623FEC671BCBF6D9A74AFF2B0B3BFAA
:10BF00009AFDDE522DDEADBF2F6C6A2C44B4A2BF69
:10BF10000D5555555555D53FFF8300922449C23FD5
:10BF20006E204CC5CD45B73F513DD0A0660DB13F09
:10BF3000EB0D76244B7BA93F11DA22E33AAD903F1B
:10BF40004C5555555555A53F7751C1166CC156BF37
:10BF50009015CB19A001FA3EAD529C804F7E92BE47
:10BF6000C4B1B4BD9EEE213ED43888BEE9FAA8BD66
:10BF7000000000000000000000004054FB21F93FD9
:10BF80003163621A61B4D03D0000601A61B4D03DE3
:10BF90007370032E8A19A33B0000002E8A19A33B5D
:10BFA000C14920259A837B39000000000000000071
:10BFB0006E83F9A22915444ED15727FCC0DD34F514
:10BFC000999562DB4190433CAB6351FE61C5BBDE9A
:10BFD0003A6E24B7E0D24D42EA2E49061C92D109AE
:10BFE0001CEB1DFE3EA729B1F53582E88444BB2E2B
:10BFF00026709CE9417E5FB439D69139F439538378
:10C000008B5F849C3B28F9BDFF97F81F0F9805DED6
:10C010008B112FEF1F6D0A5ACF7E366DB709CB27D4
:10C02000663F464F2DEA5F9EC7BA27757BF1E5EB69
:10C03000F739073DEA92528AB15FFB6B085D8D1FAD
:10C04000A6F810111111813FD561C119A0012ABFB5
:10C050007DFEB157E31DC73EEB9C2B8AE6E55ABE39
:10C060007CD5CF5A3AD9E53D88C0000800000020B1
:10C070006C0000004CB90008F4C000086C000020FF
:10C08000841500005CB900080000000000000000FA
:10C09000000000000001000000000000000000009F
:10C0A00005000000000000000000000000F000009B
:10C0B0000000030406080C101820300000000001E6
:10C0C0000203040102030406070809000000C2017C
:10C0D000030406080C1018203000000000000000C7
:10C0E0000001020304060708090000000000000028
:04C0F000000000004C
:04000005080080F57A
:00000001FF
