:020000040800F2
:10000000A0180020110100087B08000889060008DC
:10001000790800081F0200084118000800000000CD
:10002000000000000000000000000000C50A0008F9
:10003000A502000800000000150900088D0B00084B
:100040002B0100082B0100082B0100082B010008E0
:100050002B0100082B0100082B0100082B010008D0
:100060002B0100082B0100082B0100082B010008C0
:100070002B0100082B0100082B0100082B010008B0
:100080002B0100082B0100082B0100082B010008A0
:100090002B0100082B0100082B0100082B01000890
:1000A0002B0100082B0100082B0100082B01000880
:1000B0002B0100082B0100082B0100082B01000870
:1000C0002B0100082B0100082B0100082B01000860
:1000D0002B010008250E0008B10E0008310F0008A2
:1000E0002B0100082B0100082B0100082B01000840
:1000F0002B010008DFF80CD000F060F80048004742
:10010000BD1D0008A018002080F30888704700007B
:100110000648804706480047FEE7FEE7FEE7FEE7A1
:10012000FEE7FEE7FEE7FEE7FEE7FEE7D10B00088D
:10013000F5000008D2B201E000F8012B491EFBD205
:1001400070470022F6E710B513460A4604461946E2
:10015000FFF7F0FF204610BD2DE9F05F05460020B7
:1001600092469B4688460646814640241BE0284628
:1001700041464746224600F042F853465A46C01AC6
:10018000914110D311461846224600F029F82D1A45
:1001900067EB01084F4622460120002100F020F8BD
:1001A00017EB00094E41201EA4F10104DFDC484694
:1001B00031462A464346BDE8F09F0000064C074DF5
:1001C00006E0E06840F0010394E807009847103427
:1001D000AC42F6D3FFF792FFC01E0008E01E0008F5
:1001E000202A04DB203A00FA02F1002070479140F7
:1001F000C2F1200320FA03F3194390407047202AEC
:1002000004DB203A21FA02F00021704721FA02F3C0
:10021000D040C2F120029140084319467047FEE7E2
:1002200070B504464FF6FF7000234AF201050FE057
:1002300014F8012B50400022C60702D085EA500076
:1002400000E04008521CD2B2082AF5D35B1CDBB296
:100250008B42EDD370BD000010B500F0B3FD034834
:100260000021A0F80110017010BD000080000020E6
:100270000248016841F0010101607047043C0240FE
:1002800005480068C00705D00348044908300160EC
:100290000349016070470000043C0240EFCDAB8988
:1002A000050403027047000001B50348009901608E
:1002B00001680029FCD108BD0000002070B50D4682
:1002C0000A491646441872B6FFF7DAFF00F068F8DC
:1002D0000128FBD003E014F8010B05F8010B761E92
:1002E000B6B2F8D2FFF7C4FF62B670BD00000808CE
:1002F00070B50E460C491546441872B6FFF7C0FF9C
:1003000000F04EF80428FBD107E016F8010B04F8C2
:10031000010B00F045F80128FBD06D1EADB2F4D200
:10032000FFF7A6FF62B670BD00000808014908602B
:1003300070470000183C024070B505464FF4004677
:10034000304600F081F8042815D10B4C206840F4A9
:1003500000702060206840F00800206000202860C5
:10036000304600F071F8216821F008012160216811
:1003700021F40071216070BD043C024070B5054657
:100380004FF400460C46304600F05EF8042805D1D4
:100390002C603046BDE8704000F056B870BD0000DB
:1003A000084904200A68D20701D0012070470A6872
:1003B000D20501D502207047096811F4F05FFAD028
:1003C00003207047183C024010B500F029F8BDE842
:1003D000104041F60270FFF7A9BF00000248016813
:1003E00041F0020101607047043C024010B5A0F1E9
:1003F0000802182A01D20F2901D9012010BD0003DB
:1004000000EB012472B604F10064FFF7DDFF204623
:10041000FFF792FFFFF7E2FF62B6002010BD000079
:10042000064800B50068800707D5FFF729FF034895
:1004300003490C3001600349016000BD043C0240E7
:10044000BFAE9D8C1615141308B5034604208DF815
:100450000000FFF7A5FF8DF8000004E0FFF7A0FF04
:100460008DF800005B1E9DF80000012801D013B13B
:1004700004E0002BF2D105208DF800009DF800006B
:1004800008BD00007CB50121032000F045FA0124DD
:100490008DF8044000261A208DF8066000908DF833
:1004A000074003258DF805506946094800F014F807
:1004B0008DF8044020208DF8066000908DF80740EC
:1004C0008DF805506946034800F006F87CBD000031
:1004D0000000024000040240F0B5002201274FF066
:1004E000030E0B6807FA02F52B40AB4227D10668D2
:1004F000530091F804C00EFA03F4A6430CFA03FC6F
:100500004CEA060CC0F800C00E79012E01D0022E74
:100510000FD1866891F805C0A6430CFA03FC4CEA9B
:10052000060CC0F808C08688AE438D7995403543E7
:100530008580C568A543CC799C402C43C460521C7F
:10054000102ACED3F0BD4B07DB0E9A40C90810B578
:1005500000EB8100016A0F249C40A1430162016A03
:100560001143016210BD4183704701837047000051
:100570002DE9F0418EB0142109A8FFF7E2FD00211A
:100580000191029103912C4B0491059106910791E1
:100590000D46084609AA08911C5C1454401CC0B2C0
:1005A0001328F9D3002001AE13189B783354401C54
:1005B000C0B20E28F8D39DF836008DF812008DF8E1
:1005C00013101E49002001EB400336F8102052BAE8
:1005D000DA80401CC0B20828F5D34FF4C07810224E
:1005E00005A94046FFF76AFE002405AF2346385DA3
:1005F0000090325D194612A001F040FA641CE4B28A
:10060000102CF3D30020395C325C914201D06D1C78
:10061000EDB2401CC0B21028F5D325B1102201A9BB
:100620004046FFF765FE294610A001F027FA0EB0FC
:100630000120BDE8F0810000A01E00085800002045
:10064000534E5F50726F6772616D5B25645D3A3027
:100650007825782D2D2D2D534E5F454550524F4D09
:100660005B25645D3A307825780D0A00534E2049A9
:100670006E6974204F4B21534E5F4552525F464C7A
:1006800041473A25640D0A00FEE7000010B54FF41B
:10069000C06000F025F900F0CFF8FFF7F3FE4FF44B
:1006A000165000F0D9FA4FF4E13000F031FB06A00B
:1006B00001F0E4F920210E48FFF755FFBDE8104096
:1006C0000520FFF7F1BD000052756E20696E2042D3
:1006D0006F6F744C6F616465722C486172647761EE
:1006E00072652068617320696E6974210D0A0000CB
:1006F000000402403EB500200090019002900520C9
:10070000FFF7D2FD264C25486062082084F82000BF
:10071000024669460020FFF7D1FD9DF80000DDF894
:100720000110204D40EA012068609DF80400DDF8CA
:10073000051040EA0120A86040F24C4060804FF470
:100740008060A080FFF714FF1748818A81F00201C2
:100750008182022269464FF42070FFF7AFFD9DF8B9
:1007600000002080208810B12088F72801D90120BE
:10077000208021880DA001F081F916A0696801F0A0
:100780007DF91AA0A96801F079F961881FA001F02C
:1007900075F9A18822A001F071F93EBD0080000822
:1007A00058000020000000200000024050617261EB
:1007B0006D657465722068617320696E69742120AB
:1007C0004465766963655F414444523A25640D0A85
:1007D0000000000046697273745F504F5F466C61A1
:1007E000673A30782578200D0A0000005570646162
:1007F00074655F4669726D776172655F466C6167AB
:100800003A30782578200D0A0000000044657669AA
:100810006365547970653A30782578200D0A0000B8
:10082000536F66747761726556657273696F6E3A5D
:1008300030782578200D0A0070B50E484FF47A7193
:100840004FF0FF350068B0FBF1F1491EB1F1807F38
:100850000AD24FF0E02461610F21284600F04AF8E7
:100860000020A061072020612846BDE870400021DB
:1008700000F040B834000020FEE7704730B50F2389
:10088000C27801780125FAB1144A126801F1E02119
:1008900002F4E062C2F5E062C2F30722C2F104048E
:1008A000D3404278A24084781C401443220181F84E
:1008B0000024007800F01F018D404009800000F105
:1008C000E020C0F8005130BD01F01F00854048090C
:1008D000800000F1E020C0F8805130BD0CED00E058
:1008E0000249084302490860704700000000FA0509
:1008F0000CED00E00907090E002806DA00F00F00F1
:1009000000F1E02080F8141D704700F1E02080F82D
:100910000014704770470000044A0029116801D094
:10092000014300E081431160704700001C38024021
:10093000044A0029116801D0014300E0814311609D
:100940007047000024380240044A0029116801D091
:10095000014300E0814311607047000020380240ED
:1009600030B5264B1968A3F1040211F00C014FF4C5
:10097000004405D004290AD008290AD00C290BD03C
:100980001168C1F34231491C8C4004601BE01C49D2
:1009900018E04FF4E10115E019681A6801F47011CC
:1009A000184C02F4400204EB91410978012404EB55
:1009B00092521C6814F4803F1ED04FF4E10461434E
:1009C000B1FBF2F1016019680F2202EA11110D4A20
:1009D0000932545C0168E14041601C68072505EA62
:1009E0001424145D21FA04F484601B6805EAD323FF
:1009F000D25CD140C16030BD014CE0E70838024014
:100A00000024F4001B0000201CB500200090019081
:100A1000124801888DF80010A2218DF8011041883C
:100A2000090A8DF8021041888DF803108188090A9F
:100A30008DF8041080888DF8050006216846FFF7C0
:100A4000EFFB8DF80600000A8DF8070008216846C4
:100A500000F0E8F8FFF700FC1CBD00005800002083
:100A60001CB5002404220194694610460094FFF747
:100A70003FFC12480460124800888DF80000A32053
:100A80008DF8010044208DF8020066208DF80300E7
:100A900088208DF80400AA208DF8050006216846FC
:100AA000FFF7BEFB8DF80600000A8DF8070008214D
:100AB000684600F0B7F8FFF7CFFB1CBD0800002028
:100AC00058000020704700000CB500222C4900920D
:100AD0000192086840F4803008604FF4A043086831
:100AE00000F4003001900098401C0090019810B96B
:100AF00000989842F3D1086880033FD50120019007
:100B00002048026842F004020260026842F00202D9
:100B10000260026842F00102026019482430026853
:100B200042F080520260C214174802604268D20646
:100B3000FCD4134808300268026002680260026850
:100B40000260026822F47D020260026842F411022F
:100B500002600A6842F080720A600A689201FCD55D
:100B6000016821F003010160016841F003010160A7
:100B70000168C1F381010329FAD10CBD01920CBDBA
:100B800000380240003C0240007000400C48016800
:100B900011B10168491E01600A48017819B1017854
:100BA000491E017070470848B0F8011019B101786A
:100BB00009B9012101700549002008707047000043
:100BC0000000002010000020800000201200002003
:100BD000104810B5016841F4807101600D49083179
:100BE0000A680D4B1A400A6002680C4B1A400260FA
:100BF000026822F480220260086820F47D00086008
:100C0000091D00200860FFF75FFF05494FF00060F5
:100C1000086010BD003802400CC0FF88FEFFFEEEE9
:100C200008ED00E070B50A4C0D460646202120462E
:100C3000FFF79BFC00BF2A463146064800F074FAD5
:100C400000BF20212046BDE87040FFF78CBC0000AB
:100C50000004024000380140F0B587B00746252067
:100C60008DF8180001258DF819508DF81A508DF85F
:100C70001B5006A8FFF702FE01218803FFF764FE60
:100C8000214E072206213046FFF75DFC0722114660
:100C90003046FFF758FC4020009002208DF80400F9
:100CA00003208DF8050000248DF806408DF80750CC
:100CB00069463046FFF710FC8020009069463046B8
:100CC000FFF70AFCADF80C40ADF80E40ADF810404F
:100CD000ADF814400C200D4CADF81200029702A99B
:100CE000204600F0B7F9012240F22551204600F0DD
:100CF00098F94021204600F05BF90121204600F0E0
:100D000060F907B0F0BD0000000402400038014067
:100D1000F0B587B0074627208DF8180001258DF81B
:100D2000195002248DF81A408DF81B5006A8FFF7C1
:100D3000A5FD01218804FFF7FBFD204E07220A21B3
:100D40003046FFF700FC07220B213046FFF7FBFB84
:100D500060028DF804408DF80550002400908DF855
:100D600006408DF8075069463046FFF7B5FBE802AC
:100D7000009069463046FFF7AFFBADF80C40ADF888
:100D80000E40ADF81040ADF814400C200C4CADF8FE
:100D90001200029702A9204600F05CF9012240F2FD
:100DA0002551204600F03DF94021204600F000F991
:100DB0000121204600F005F907B0F0BD0004024013
:100DC00000480040034800214160016002488170F2
:100DD000017070478402002013000020054803C8FA
:100DE000814202D14FF6FF7070474FF47A7000F0E5
:100DF00003B80000840200200949D1E9003203E071
:100E0000401E0004000C08D09A42F9D0C2F308003A
:100E10000844521C4A60007A70474FF6FF707047D2
:100E2000840200202DE9F0411C4D40F225561A4C59
:100E30003146284600F0D6F800282BD01848012269
:100E40000270184802702F46284600F07EF9C5B29D
:100E50003146384600F0AFF8134B1878002819D106
:100E6000D4E90001114A814202D01678002E11D037
:100E700005261670411AB1F5007F06D2C0F30800AE
:100E8000204405722068401C20602088A188401AF8
:100E9000A3F80100BDE8F081840200200038014081
:100EA000110000201200002080000020100000200F
:100EB0002DE9F0411A4E40F22557184C394630467C
:100EC00000F090F8002826D0304600F03EF9C5B278
:100ED0003946304600F06FF81248007800281AD1E1
:100EE000D4E900010A1AD3050F4A02D01378002B67
:100EF00011D004231370411AB1F5007F06D2C0F35C
:100F00000800204405722068401C20602078217968
:100F1000401A06490870BDE8F08100008C040020EA
:100F2000004400401500002017000020140000209D
:100F30002DE9F0411A4E40F22557184C39463046FB
:100F400000F050F8002826D0304600F0FEF8C5B278
:100F50003946304600F02FF81248007800281AD1A0
:100F6000D4E900010A1AD3050F4A02D01378002BE6
:100F700011D004231370411AB1F5007F06D2C0F3DB
:100F80000800204405722068401C206020782179E8
:100F9000401A06490870BDE8F08100009406002060
:100FA000004800401A00002018000020190000200E
:100FB000C943018070470A0A01219140C943018059
:100FC00070470029818902D041F4005101E021F4E9
:100FD0000051818170470246002012880A4200D0E9
:100FE0000120704770B501F01F0501260024C1F3F0
:100FF000421306FA05F2012B0FD0022B0FD0838A81
:101000004FEA11210088134206FA01F600EA0600B1
:1010100001D000B10124204670BD8389F0E7038A26
:10102000EEE710B5C1F3421301F01F040121A14006
:10103000012B07D0022B07D01430002A026805D0FC
:101040000A4304E00C30F8E71030F6E78A43026008
:1010500010BD00007FB50446008A0D4620F44051C3
:10106000E88808432082A18941F20C608143A88866
:101070002A8910436A890A431043A081A08A20F478
:101080004071A8890843A0826846FFF769FC1948A7
:10109000844201D1039800E00298A189090400EB81
:1010A000C00101EB0010296801D5490000E089006A
:1010B000B0FBF1F06422B0FBF2F109010B096FF013
:1010C00018056B4300EB8300A3891D044FF0320326
:1010D00006D503EBC000B0FBF2F000F0070005E01E
:1010E00003EB0010B0FBF2F000F00F00084320818A
:1010F0007FBD00000038014070B50D460646002453
:101100004021FFF768FF2946304600F022F84FF4EF
:10111000A02540213046FFF75EFF002803D120467E
:10112000641CA842F5D370BD2DE9F04116460D466A
:101130000746002405E015F8011B3846FFF7DCFFE1
:10114000641CB442F7D3BDE8F0818088C0F3080086
:101150007047C1F308018180704700002DE9F04F0E
:10116000C5B000204290439044904FF4807102A893
:10117000FEF7E7FF0026FEA000F080FCDFF81884F1
:10118000DFF8109408F10205DFF810B44FF47A7A12
:101190006C1EB9F81410574681F00201A9F814101A
:1011A0000CE00A20FFF780F8B9F8141081F0020172
:1011B000A9F814107F1E3F043F0C05D098F80010CA
:1011C0000029EED0002708E0F5A041E1FFF706FE78
:1011D00008EB0701C8707F1CBFB2B8F80100B84225
:1011E000F4D8B8F801004746801EC1B2F81CFFF7DA
:1011F00017F8B7F80110095DB7F80120525D41EA10
:10120000022181420AD0B7F801103846495DFF2912
:1012100012D1B0F80100005DFF280DD1F978BBF8BC
:101220000000814206D1B7F80100082802D13879C0
:10123000252804D0FFF710F8FFF70EF8A9E7E2A081
:1012400000F01CFCBBF800008DF80801A5208DF80B
:10125000090144208DF80A0166208DF80B018820D1
:101260008DF80C01AA208DF80D01062142A8FEF789
:10127000D7FF8DF80E01000A8DF80F01082142A852
:10128000FFF7D0FCFEF7E8FFD4A000F0F7FBB8466C
:1012900057460CE00A20FFF707F8B9F8141081F060
:1012A0000201A9F814107F1E3F043F0C05D098F8E6
:1012B00000100029EED0002708E0D1A0C8E0FFF719
:1012C0008DFD08EB0701C8707F1CBFB2B8F80100A4
:1012D000B842F4D8B8F801004746801EC1B2F81CE5
:1012E000FEF79EFFB7F80110095DB7F80120525DC7
:1012F00041EA022181420AD0B7F801103846495D1F
:10130000FF2912D1B0F80100005DFF280DD1F97856
:10131000BBF80000814206D1B7F801000C2802D1C9
:101320003879262804D0FEF797FFFEF795FFAFE740
:101330009948817942795F4641EA0221ABF816105B
:10134000817AC27941EA0261027A437A120442EA5E
:1013500003221143CBF81810017BC07A41EA002028
:10136000ABF81C00BBF81C00ABF81E00BB8BBA69C5
:10137000F98AAEA000F082FBBCA000F07FFB97F8DA
:101380002000B96900EB910087F8210097F82080D0
:10139000BB460EE090F8227005E039464046FFF764
:1013A00025F87F1CBFB2102FF7D908F101001FFAF2
:1013B00080F89BF8212058464245EBD2B2A000F0BD
:1013C0005DFB764FF88AC1B20A20B1FBF0F200FB58
:1013D0001213F98AC9B2B1FBF0F2B98BB869CDE941
:1013E0000001F88A010AAFA000F048FB38888DF8A8
:1013F0000801A6208DF8090144208DF80A01662015
:101400008DF80B014FF0880B8DF80CB1AA208DF8E8
:101410000D01062142A8FEF703FF8DF80E01000A18
:101420008DF80F01082142A8FFF7FCFBACA000F0EB
:1014300025FB52E00A20FEF737FFB9F8141081F0BF
:101440000201A9F814107F1E3F043F0C06D1ACA086
:1014500000F014FB45B00020BDE8F08F98F80010B4
:101460000029E7D0002706E0FFF7B8FC08EB0701EA
:10147000C8707F1CBFB2B8F80100B842F4D8B8F801
:1014800001004746801EC1B2F81CFEF7C9FEB7F83E
:101490000110095DB7F80120525D41EA0221814245
:1014A0000AD0B7F801103846495DFF2915D1B0F8C8
:1014B0000100005DFF2810D1F878DFF8E080B8F86F
:1014C0000010884207D1B7F80100B0F5837F02D140
:1014D0003879272807D0FEF7BFFEFEF7BDFE574636
:1014E000DFF8B480BAE7402102A8FEF72AFE002008
:1014F0000DF1080C07EB8001CA798B7A42EA03628E
:101500004B7A097A1B0443EA01210A434CF8202054
:10151000401C80B24028EDD3761CB6B2314682A082
:1015200000F0ACFAD8F82400402202A900F07AFAC0
:10153000D8F8240000F58070C8F82400B8F81C0022
:10154000401EA8F81C00FEF787FEB8F81C00002813
:10155000B8F800008DF8080108D0A7208DF809011F
:10156000300A8DF80A018DF80B61EBE0FDE0000018
:101570000D0A537465702031203A57616974204D0B
:101580005420436F6E6E656374496E666F210D0A59
:1015900000000000000002408000002058000020F1
:1015A0000D0A537465702031203A57616974204DDB
:1015B0005420436F6E6E6563742054696D656F755A
:1015C00074210D0A00000000436F6E6E6563744461
:1015D0006576696365204F4B210D0A000D0A53742F
:1015E00065702032203A57616974204D5420415073
:1015F00050496D616765496E666F210D0A000000F4
:101600000D0A537465702032203A57616974204D79
:101610005420415050496D616765496E666F205492
:10162000696D656F7574210D0A00000041707020AE
:10163000496E666F2D50726F6772616D5F5665728D
:1016400073696F6E3A30782578202C50726F67720C
:10165000616D5F53697A653A25642C546F746C65CB
:101660005F4672616D653A25640D0A00435055204E
:10167000457261676520466C617368204E6F772004
:101680002E202E202E0D0A00466C61736820204506
:101690007261676520204F4B202E202E202E0D0AD0
:1016A0000000000050726F6772616D5F5665727363
:1016B000696F6E3A25642E25642E25642050726F62
:1016C0006772616D5F53697A653A25644B62205495
:1016D0006F746C655F4672616D653A25640D0A0032
:1016E0000D0A537465702033203A57616974204D98
:1016F000542041505044617461210D0A00000000E3
:101700000D0A537465702033203A57616974204D77
:101710005420415050446174612054696D656F7567
:1017200074210D0A00000000577269746520746FFF
:1017300020466C6173682025642E202E202E0D0A11
:10174000000000008DF80CB1AA208DF80D010621D3
:1017500042A8FEF765FD8DF80E01000A8DF80F0115
:10176000082142A8FFF75EFAB7E6B7208DF8090115
:10177000D8F81800000E8DF80A01D8F81800000CEF
:101780008DF80B01D8F81800000A8DF80C01D8F874
:1017900018008DF80D01062142A8FEF741FD8DF8D5
:1017A0000E01000A8DF80F01082142A8FFF73AFA4E
:1017B00008278DF808718DF809718DF80A710422D7
:1017C0008DF80B7142A91046FEF792FDDFF82880D4
:1017D000D8F80400B7EB106F06D108A000F04EF95E
:1017E000404600F0D5FA78E60EA000F047F913491C
:1017F00011480860FEE7000000800008436F6D702C
:101800006C657465204669726D77617265205570EC
:101810006461746521476F20546F204150502E2E13
:101820002E0D0A005374617274204150502046619D
:10183000696C6564210D0A000400FA050CED00E0F6
:10184000FEE700002DE9F0474FF47A743AA000F06B
:1018500015F9444EDFF808914FF4487A06F1020872
:10186000771C0520FEF720FDB9F8141081F0020165
:10187000A9F81410641EA4B2544501D13AA00CE09A
:10188000B4F5167F06D0B4F5C87F05D0C82C0BD0B0
:1018900064B104E03EA000E047A000F0EFF830782B
:1018A0000028DED000250BE04DA0F6E756A000F0A2
:1018B000E5F83EE0FFF792FA7119C8706D1CADB201
:1018C000B6F80100A842F5D8B6F801003546801EEA
:1018D000C1B2F01CFEF7A4FCB6F80110CA5DB6F860
:1018E000013013F8081042EA012181420BD0B5F80B
:1018F0000120284612F80810FF2915D1B0F8010080
:10190000C05DFF2810D1E8784549098888420BD18D
:10191000B5F80100082807D12879222801D1FFF75E
:1019200073F82879232802D0FEF796FC99E7FFF791
:1019300097F80020BDE8F087506F7765724F4E2012
:101940005761697420557064617465204669726DD1
:10195000776172652035532E2E2E0D0A000000008F
:101960000000024080000020506F7765724F4E20CB
:101970005761697420557064617465204669726DA1
:10198000776172652034532E2E2E0D0A0000000060
:10199000506F7765724F4E2057616974205570649F
:1019A000617465204669726D776172652033532ECC
:1019B0002E2E0D0A00000000506F7765724F4E20EA
:1019C0005761697420557064617465204669726D51
:1019D000776172652032532E2E2E0D0A0000000012
:1019E000506F7765724F4E2057616974205570644F
:1019F000617465204669726D776172652031532E7E
:101A00002E2E0D0A00000000576169745F55706446
:101A10006174652054696D656F7574210D0A00004D
:101A2000580000202DE9F04105468846114812492A
:101A3000002628441746884201D2A80702D0022077
:101A4000BDE8F08172B6FEF7BFFC00240AE058F84A
:101A500024102846FEF792FC042801D0012603E05A
:101A6000641C2D1DBC42F2D3FEF7B8FC62B63046B2
:101A7000E6E700000080FFF7FF7F01000FB4054B91
:101A800010B503A9044A029800F018F810BC5DF8DC
:101A900014FB00007D1D00085400002002E008C86F
:101AA000121F08C1002AFAD170477047002001E0D8
:101AB00001C1121F002AFBD1704700002DE9FF4F22
:101AC0008DB09B460F460446002606E025280BD025
:101AD0005A460F999047641C761C20780028F5D14F
:101AE00011B03046BDE8F08F0025A8460122984984
:101AF00000E0054314F8013F203B02FA03F00842DE
:101B0000F7D120782E2817D114F8010F45F00405DD
:101B10002A280ED06FF02F022078A0F13001092979
:101B20000AD808EB880102EB410100EB0108641CB4
:101B3000F2E757F8048B641C20786C280DD004DC85
:101B40004C2812D06A2811D104E074280DD07A28CC
:101B50000CD10AE045F4001507E0617845F48015E2
:101B6000814202D1641C05F58015641C2278692A23
:101B700045D008DC002AB3D0582A69D0632A10D097
:101B8000642A08D13BE0702A67D0732A13D0752AE3
:101B90005CD0782A5CD010465A460F999047761C44
:101BA000D3E017F8040B8DF8000000208DF8010039
:101BB000E946012003E057F8049B4FF0FF30690726
:101BC0004FF0000501D40AE06D1C45450DDA854251
:101BD000FADB19F805100029F6D106E06D1C8542E4
:101BE000FCDB19F805100029F8D12E4404E019F89F
:101BF000010B5A460F9990476D1EF8D2A5E00A20B6
:101C00000021CDE90801C5F3025002280DD001CF13
:101C1000C117031E71F100030DDA4FF0000CD0EB79
:101C20000C006CEB01012D2308E0FF1D27F00707D6
:101C3000F7E80201EDE72B0504D52B238DF82830BA
:101C400001233BE0EB0739D02023F7E70A2000E02F
:101C500010200021CDE9080107E01020002145F007
:101C60000405CDE908014FF00808C5F30250022829
:101C70000FD001CF00214FF0000A2B071FD5702A8B
:101C80000DD0DDE908C38CF0100C5CEA030C0CD01D
:101C900015E0FF1D27F00707F7E80201EBE74022F8
:101CA0008DF828204FF0010A0BE050EA010306D01E
:101CB00030238DF828308DF8292002239A46582A9F
:101CC00004D024A20DF120090B9209E026A2F9E725
:101CD000DDE90823FEF740FA0B9B9B5C09F8013D08
:101CE00050EA0102F4D1ADEB0900203008906807FA
:101CF00001D44FF001080899884502DDA8EB0100E6
:101D000000E000208046002506E00AA85A46405D13
:101D10000F9990476D1C761C5545F6DB04E030208A
:101D20005A460F999047761CB8F10001A8F10108B6
:101D3000F5DC05E019F8010B5A460F999047761C1F
:101D40000899481E08900029F4DC641CC5E60000D0
:101D50000928010030313233343536373839616281
:101D60006364656600000000303132333435363745
:101D700038394142434445460000000010B504464E
:101D8000C1B20248FFF7B8F9204610BD0048004034
:101D900010B50168074A1140B1F1005F09D14168EF
:101DA000054C21600068FEF7AFF92068BDE81040DF
:101DB000004710BD0000FE2F0C000020FEF766FC5F
:101DC000FEF798FC1D4FDFF87880DFF878901E4C06
:101DD000DFF878A04FF008364FF0080BD9F808006C
:101DE0004D46B04221D1A08A80F00200A082FFF7C8
:101DF00029FDA868B04210D1DAF804105546BBEBB3
:101E0000116F0AD112A0FFF739FEA08A80F00200FC
:101E1000A0822846FFF7BCFFE0E716A0FFF72EFEE2
:101E2000FFF79CF9C8F80070FEE717A0FFF726FE41
:101E3000FFF794F9C8F80070FEE700000400FA0507
:101E40000CED00E0000000200000024000800008CF
:101E50004E6F20557064617465205461736B202C43
:101E600020476F20546F20415050202E2E2E2E0DD3
:101E70000A00000053746172742041505020466182
:101E8000696C6564210D0A005570646174655F4674
:101E900069726D776172652E2E2E0D0A00000000AA
:101EA0002A2A5355503433323134333231313233BC
:101EB0002A2A34000000000000000000000000009A
:101EC000E01E000800000020580000009C1A0008D6
:101ED000381F00085800002048180000AC1A0008FD
:101EE00000000000000000000000000000000000F2
:101EF0000500000000000000000000030406080CBC
:101F00001018203000000000010203040102030445
:101F1000060708090000C201030406080C10182077
:101F20003000000000000000000102030406070862
:081F30000900000000000000A0
:04000005080000F5FA
:00000001FF
